{
  "abi": [
    {
      "inputs": [
        {
          "internalType": "contract OptimismPortal",
          "name": "_portal",
          "type": "address"
        }
      ],
      "stateMutability": "nonpayable",
      "type": "constructor"
    },
    {
      "anonymous": false,
      "inputs": [
        {
          "indexed": true,
          "internalType": "bytes32",
          "name": "msgHash",
          "type": "bytes32"
        }
      ],
      "name": "FailedRelayedMessage",
      "type": "event"
    },
    {
      "anonymous": false,
      "inputs": [
        {
          "indexed": false,
          "internalType": "uint8",
          "name": "version",
          "type": "uint8"
        }
      ],
      "name": "Initialized",
      "type": "event"
    },
    {
      "anonymous": false,
      "inputs": [
        {
          "indexed": true,
          "internalType": "bytes32",
          "name": "msgHash",
          "type": "bytes32"
        }
      ],
      "name": "RelayedMessage",
      "type": "event"
    },
    {
      "anonymous": false,
      "inputs": [
        {
          "indexed": true,
          "internalType": "address",
          "name": "target",
          "type": "address"
        },
        {
          "indexed": false,
          "internalType": "address",
          "name": "sender",
          "type": "address"
        },
        {
          "indexed": false,
          "internalType": "bytes",
          "name": "message",
          "type": "bytes"
        },
        {
          "indexed": false,
          "internalType": "uint256",
          "name": "messageNonce",
          "type": "uint256"
        },
        {
          "indexed": false,
          "internalType": "uint256",
          "name": "gasLimit",
          "type": "uint256"
        }
      ],
      "name": "SentMessage",
      "type": "event"
    },
    {
      "anonymous": false,
      "inputs": [
        {
          "indexed": true,
          "internalType": "address",
          "name": "sender",
          "type": "address"
        },
        {
          "indexed": false,
          "internalType": "uint256",
          "name": "value",
          "type": "uint256"
        }
      ],
      "name": "SentMessageExtension1",
      "type": "event"
    },
    {
      "inputs": [],
      "name": "MESSAGE_VERSION",
      "outputs": [
        {
          "internalType": "uint16",
          "name": "",
          "type": "uint16"
        }
      ],
      "stateMutability": "view",
      "type": "function"
    },
    {
      "inputs": [],
      "name": "MIN_GAS_CALLDATA_OVERHEAD",
      "outputs": [
        {
          "internalType": "uint64",
          "name": "",
          "type": "uint64"
        }
      ],
      "stateMutability": "view",
      "type": "function"
    },
    {
      "inputs": [],
      "name": "MIN_GAS_DYNAMIC_OVERHEAD_DENOMINATOR",
      "outputs": [
        {
          "internalType": "uint64",
          "name": "",
          "type": "uint64"
        }
      ],
      "stateMutability": "view",
      "type": "function"
    },
    {
      "inputs": [],
      "name": "MIN_GAS_DYNAMIC_OVERHEAD_NUMERATOR",
      "outputs": [
        {
          "internalType": "uint64",
          "name": "",
          "type": "uint64"
        }
      ],
      "stateMutability": "view",
      "type": "function"
    },
    {
      "inputs": [],
      "name": "OTHER_MESSENGER",
      "outputs": [
        {
          "internalType": "address",
          "name": "",
          "type": "address"
        }
      ],
      "stateMutability": "view",
      "type": "function"
    },
    {
      "inputs": [],
      "name": "PORTAL",
      "outputs": [
        {
          "internalType": "contract OptimismPortal",
          "name": "",
          "type": "address"
        }
      ],
      "stateMutability": "view",
      "type": "function"
    },
    {
      "inputs": [],
      "name": "RELAY_CALL_OVERHEAD",
      "outputs": [
        {
          "internalType": "uint64",
          "name": "",
          "type": "uint64"
        }
      ],
      "stateMutability": "view",
      "type": "function"
    },
    {
      "inputs": [],
      "name": "RELAY_CONSTANT_OVERHEAD",
      "outputs": [
        {
          "internalType": "uint64",
          "name": "",
          "type": "uint64"
        }
      ],
      "stateMutability": "view",
      "type": "function"
    },
    {
      "inputs": [],
      "name": "RELAY_GAS_CHECK_BUFFER",
      "outputs": [
        {
          "internalType": "uint64",
          "name": "",
          "type": "uint64"
        }
      ],
      "stateMutability": "view",
      "type": "function"
    },
    {
      "inputs": [],
      "name": "RELAY_RESERVED_GAS",
      "outputs": [
        {
          "internalType": "uint64",
          "name": "",
          "type": "uint64"
        }
      ],
      "stateMutability": "view",
      "type": "function"
    },
    {
      "inputs": [
        {
          "internalType": "bytes",
          "name": "_message",
          "type": "bytes"
        },
        {
          "internalType": "uint32",
          "name": "_minGasLimit",
          "type": "uint32"
        }
      ],
      "name": "baseGas",
      "outputs": [
        {
          "internalType": "uint64",
          "name": "",
          "type": "uint64"
        }
      ],
      "stateMutability": "pure",
      "type": "function"
    },
    {
      "inputs": [
        {
          "internalType": "bytes32",
          "name": "",
          "type": "bytes32"
        }
      ],
      "name": "failedMessages",
      "outputs": [
        {
          "internalType": "bool",
          "name": "",
          "type": "bool"
        }
      ],
      "stateMutability": "view",
      "type": "function"
    },
    {
      "inputs": [],
      "name": "initialize",
      "outputs": [],
      "stateMutability": "nonpayable",
      "type": "function"
    },
    {
      "inputs": [],
      "name": "messageNonce",
      "outputs": [
        {
          "internalType": "uint256",
          "name": "",
          "type": "uint256"
        }
      ],
      "stateMutability": "view",
      "type": "function"
    },
    {
      "inputs": [
        {
          "internalType": "uint256",
          "name": "_nonce",
          "type": "uint256"
        },
        {
          "internalType": "address",
          "name": "_sender",
          "type": "address"
        },
        {
          "internalType": "address",
          "name": "_target",
          "type": "address"
        },
        {
          "internalType": "uint256",
          "name": "_value",
          "type": "uint256"
        },
        {
          "internalType": "uint256",
          "name": "_minGasLimit",
          "type": "uint256"
        },
        {
          "internalType": "bytes",
          "name": "_message",
          "type": "bytes"
        }
      ],
      "name": "relayMessage",
      "outputs": [],
      "stateMutability": "payable",
      "type": "function"
    },
    {
      "inputs": [
        {
          "internalType": "address",
          "name": "_target",
          "type": "address"
        },
        {
          "internalType": "bytes",
          "name": "_message",
          "type": "bytes"
        },
        {
          "internalType": "uint32",
          "name": "_minGasLimit",
          "type": "uint32"
        }
      ],
      "name": "sendMessage",
      "outputs": [],
      "stateMutability": "payable",
      "type": "function"
    },
    {
      "inputs": [
        {
          "internalType": "bytes32",
          "name": "",
          "type": "bytes32"
        }
      ],
      "name": "successfulMessages",
      "outputs": [
        {
          "internalType": "bool",
          "name": "",
          "type": "bool"
        }
      ],
      "stateMutability": "view",
      "type": "function"
    },
    {
      "inputs": [],
      "name": "version",
      "outputs": [
        {
          "internalType": "string",
          "name": "",
          "type": "string"
        }
      ],
      "stateMutability": "view",
      "type": "function"
    },
    {
      "inputs": [],
      "name": "xDomainMessageSender",
      "outputs": [
        {
          "internalType": "address",
          "name": "",
          "type": "address"
        }
      ],
      "stateMutability": "view",
      "type": "function"
    }
  ],
  "address": "0x142c04a632877bc36334616a4b471e59460E94cf",
  "args": [
    "0x606689c20562aC06202B8AB2Ad9029c961C2E267"
  ],
  "bytecode": "0x6101206040523480156200001257600080fd5b50604051620023183803806200231883398101604081905262000035916200025c565b734200000000000000000000000000000000000007608052600160a0819052600460c05260e0526001600160a01b03811661010052620000746200007b565b506200028e565b600054600160a81b900460ff1615808015620000a457506000546001600160a01b90910460ff16105b80620000db5750620000c130620001c860201b620012f11760201c565b158015620000db5750600054600160a01b900460ff166001145b620001445760405162461bcd60e51b815260206004820152602e60248201527f496e697469616c697a61626c653a20636f6e747261637420697320616c72656160448201526d191e481a5b9a5d1a585b1a5e995960921b60648201526084015b60405180910390fd5b6000805460ff60a01b1916600160a01b179055801562000172576000805460ff60a81b1916600160a81b1790555b6200017c620001d7565b8015620001c5576000805460ff60a81b19169055604051600181527f7f26b83ff96e1f2b6a682f133852f6798a09c465da95921460cefb38474024989060200160405180910390a15b50565b6001600160a01b03163b151590565b600054600160a81b900460ff16620002465760405162461bcd60e51b815260206004820152602b60248201527f496e697469616c697a61626c653a20636f6e7472616374206973206e6f74206960448201526a6e697469616c697a696e6760a81b60648201526084016200013b565b60cc80546001600160a01b03191661dead179055565b6000602082840312156200026f57600080fd5b81516001600160a01b03811681146200028757600080fd5b9392505050565b60805160a05160c05160e0516101005161201b620002fd600039600081816101a30152818161134a0152818161162c0152818161168d0152611759015260006106c40152600061069b015260006106720152600081816102dd0152818161040c0152611656015261201b6000f3fe6080604052600436106101445760003560e01c80636e296e45116100c0578063a4e7f8bd11610074578063b28ade2511610059578063b28ade251461036f578063d764ad0b1461038f578063ecc70428146103a257600080fd5b8063a4e7f8bd146102ff578063b1b1b2091461033f57600080fd5b806383a74074116100a557806383a74074146102b45780638cbeeef21461023c5780639fce812c146102cb57600080fd5b80636e296e451461028a5780638129fc1c1461029f57600080fd5b80633dbb202b116101175780634c1d6a69116100fc5780634c1d6a691461023c57806354fd4d50146102525780635644cfdf1461027457600080fd5b80633dbb202b146101ff5780633f827a5a1461021457600080fd5b8063028f85f7146101495780630c5684981461017c5780630ff754ea146101915780632828d7e8146101ea575b600080fd5b34801561015557600080fd5b5061015e601081565b60405167ffffffffffffffff90911681526020015b60405180910390f35b34801561018857600080fd5b5061015e603f81565b34801561019d57600080fd5b506101c57f000000000000000000000000000000000000000000000000000000000000000081565b60405173ffffffffffffffffffffffffffffffffffffffff9091168152602001610173565b3480156101f657600080fd5b5061015e604081565b61021261020d3660046119a1565b610407565b005b34801561022057600080fd5b50610229600181565b60405161ffff9091168152602001610173565b34801561024857600080fd5b5061015e619c4081565b34801561025e57600080fd5b5061026761066b565b6040516101739190611a82565b34801561028057600080fd5b5061015e61138881565b34801561029657600080fd5b506101c561070e565b3480156102ab57600080fd5b506102126107fa565b3480156102c057600080fd5b5061015e62030d4081565b3480156102d757600080fd5b506101c57f000000000000000000000000000000000000000000000000000000000000000081565b34801561030b57600080fd5b5061032f61031a366004611a9c565b60ce6020526000908152604090205460ff1681565b6040519015158152602001610173565b34801561034b57600080fd5b5061032f61035a366004611a9c565b60cb6020526000908152604090205460ff1681565b34801561037b57600080fd5b5061015e61038a366004611ab5565b6109f7565b61021261039d366004611b09565b610a65565b3480156103ae57600080fd5b506103f960cd547dffffffffffffffffffffffffffffffffffffffffffffffffffffffffffff167e010000000000000000000000000000000000000000000000000000000000001790565b604051908152602001610173565b6105407f00000000000000000000000000000000000000000000000000000000000000006104368585856109f7565b347fd764ad0b000000000000000000000000000000000000000000000000000000006104a260cd547dffffffffffffffffffffffffffffffffffffffffffffffffffffffffffff167e010000000000000000000000000000000000000000000000000000000000001790565b338a34898c8c6040516024016104be9796959493929190611bd8565b604080517fffffffffffffffffffffffffffffffffffffffffffffffffffffffffffffffe08184030181529190526020810180517bffffffffffffffffffffffffffffffffffffffffffffffffffffffff167fffffffff000000000000000000000000000000000000000000000000000000009093169290921790915261130d565b8373ffffffffffffffffffffffffffffffffffffffff167fcb0f7ffd78f9aee47a248fae8db181db6eee833039123e026dcbff529522e52a3385856105c560cd547dffffffffffffffffffffffffffffffffffffffffffffffffffffffffffff167e010000000000000000000000000000000000000000000000000000000000001790565b866040516105d7959493929190611c37565b60405180910390a260405134815233907f8ebb2ec2465bdb2a06a66fc37a0963af8a2a6a1479d81d56fdb8cbb98096d5469060200160405180910390a2505060cd80547dffffffffffffffffffffffffffffffffffffffffffffffffffffffffffff808216600101167fffff0000000000000000000000000000000000000000000000000000000000009091161790555050565b60606106967f00000000000000000000000000000000000000000000000000000000000000006113c2565b6106bf7f00000000000000000000000000000000000000000000000000000000000000006113c2565b6106e87f00000000000000000000000000000000000000000000000000000000000000006113c2565b6040516020016106fa93929190611c85565b604051602081830303815290604052905090565b60cc5460009073ffffffffffffffffffffffffffffffffffffffff167fffffffffffffffffffffffffffffffffffffffffffffffffffffffffffff2153016107dd576040517f08c379a000000000000000000000000000000000000000000000000000000000815260206004820152603560248201527f43726f7373446f6d61696e4d657373656e6765723a2078446f6d61696e4d657360448201527f7361676553656e646572206973206e6f7420736574000000000000000000000060648201526084015b60405180910390fd5b5060cc5473ffffffffffffffffffffffffffffffffffffffff1690565b6000547501000000000000000000000000000000000000000000900460ff1615808015610845575060005460017401000000000000000000000000000000000000000090910460ff16105b806108775750303b158015610877575060005474010000000000000000000000000000000000000000900460ff166001145b610903576040517f08c379a000000000000000000000000000000000000000000000000000000000815260206004820152602e60248201527f496e697469616c697a61626c653a20636f6e747261637420697320616c72656160448201527f647920696e697469616c697a656400000000000000000000000000000000000060648201526084016107d4565b600080547fffffffffffffffffffffff00ffffffffffffffffffffffffffffffffffffffff1674010000000000000000000000000000000000000000179055801561098957600080547fffffffffffffffffffff00ffffffffffffffffffffffffffffffffffffffffff1675010000000000000000000000000000000000000000001790555b6109916114f7565b80156109f457600080547fffffffffffffffffffff00ffffffffffffffffffffffffffffffffffffffffff169055604051600181527f7f26b83ff96e1f2b6a682f133852f6798a09c465da95921460cefb38474024989060200160405180910390a15b50565b6000611388619c4080603f610a13604063ffffffff8816611d2a565b610a1d9190611d89565b610a28601088611d2a565b610a359062030d40611db0565b610a3f9190611db0565b610a499190611db0565b610a539190611db0565b610a5d9190611db0565b949350505050565b60f087901c60028110610b20576040517f08c379a000000000000000000000000000000000000000000000000000000000815260206004820152604d60248201527f43726f7373446f6d61696e4d657373656e6765723a206f6e6c7920766572736960448201527f6f6e2030206f722031206d657373616765732061726520737570706f7274656460648201527f20617420746869732074696d6500000000000000000000000000000000000000608482015260a4016107d4565b8061ffff16600003610c15576000610b71878986868080601f0160208091040260200160405190810160405280939291908181526020018383808284376000920191909152508f92506115d0915050565b600081815260cb602052604090205490915060ff1615610c13576040517f08c379a000000000000000000000000000000000000000000000000000000000815260206004820152603760248201527f43726f7373446f6d61696e4d657373656e6765723a206c65676163792077697460448201527f6864726177616c20616c72656164792072656c6179656400000000000000000060648201526084016107d4565b505b6000610c5b898989898989898080601f0160208091040260200160405190810160405280939291908181526020018383808284376000920191909152506115ef92505050565b9050610c65611612565b15610c9d57853414610c7957610c79611ddc565b600081815260ce602052604090205460ff1615610c9857610c98611ddc565b610def565b3415610d51576040517f08c379a000000000000000000000000000000000000000000000000000000000815260206004820152605060248201527f43726f7373446f6d61696e4d657373656e6765723a2076616c7565206d75737460448201527f206265207a65726f20756e6c657373206d6573736167652069732066726f6d2060648201527f612073797374656d206164647265737300000000000000000000000000000000608482015260a4016107d4565b600081815260ce602052604090205460ff16610def576040517f08c379a000000000000000000000000000000000000000000000000000000000815260206004820152603060248201527f43726f7373446f6d61696e4d657373656e6765723a206d65737361676520636160448201527f6e6e6f74206265207265706c617965640000000000000000000000000000000060648201526084016107d4565b610df887611736565b15610eab576040517f08c379a000000000000000000000000000000000000000000000000000000000815260206004820152604360248201527f43726f7373446f6d61696e4d657373656e6765723a2063616e6e6f742073656e60448201527f64206d65737361676520746f20626c6f636b65642073797374656d206164647260648201527f6573730000000000000000000000000000000000000000000000000000000000608482015260a4016107d4565b600081815260cb602052604090205460ff1615610f4a576040517f08c379a000000000000000000000000000000000000000000000000000000000815260206004820152603660248201527f43726f7373446f6d61696e4d657373656e6765723a206d65737361676520686160448201527f7320616c7265616479206265656e2072656c617965640000000000000000000060648201526084016107d4565b610f6b85610f5c611388619c40611db0565b67ffffffffffffffff166117ad565b1580610f91575060cc5473ffffffffffffffffffffffffffffffffffffffff1661dead14155b156110aa57600081815260ce602052604080822080547fffffffffffffffffffffffffffffffffffffffffffffffffffffffffffffff001660011790555182917f99d0e048484baa1b1540b1367cb128acd7ab2946d1ed91ec10e3c85e4bf51b8f91a27fffffffffffffffffffffffffffffffffffffffffffffffffffffffffffffffff32016110a3576040517f08c379a000000000000000000000000000000000000000000000000000000000815260206004820152602d60248201527f43726f7373446f6d61696e4d657373656e6765723a206661696c656420746f2060448201527f72656c6179206d6573736167650000000000000000000000000000000000000060648201526084016107d4565b50506112e3565b60cc80547fffffffffffffffffffffffff00000000000000000000000000000000000000001673ffffffffffffffffffffffffffffffffffffffff8a16179055600061113b88619c405a6110fe9190611e0b565b8988888080601f0160208091040260200160405190810160405280939291908181526020018383808284376000920191909152506117cb92505050565b60cc80547fffffffffffffffffffffffff00000000000000000000000000000000000000001661dead179055905080156111d257600082815260cb602052604080822080547fffffffffffffffffffffffffffffffffffffffffffffffffffffffffffffff001660011790555183917f4641df4a962071e12719d8c8c8e5ac7fc4d97b927346a3d7a335b1f7517e133c91a26112df565b600082815260ce602052604080822080547fffffffffffffffffffffffffffffffffffffffffffffffffffffffffffffff001660011790555183917f99d0e048484baa1b1540b1367cb128acd7ab2946d1ed91ec10e3c85e4bf51b8f91a27fffffffffffffffffffffffffffffffffffffffffffffffffffffffffffffffff32016112df576040517f08c379a000000000000000000000000000000000000000000000000000000000815260206004820152602d60248201527f43726f7373446f6d61696e4d657373656e6765723a206661696c656420746f2060448201527f72656c6179206d6573736167650000000000000000000000000000000000000060648201526084016107d4565b5050505b50505050505050565b905090565b73ffffffffffffffffffffffffffffffffffffffff163b151590565b6040517fe9e05c4200000000000000000000000000000000000000000000000000000000815273ffffffffffffffffffffffffffffffffffffffff7f0000000000000000000000000000000000000000000000000000000000000000169063e9e05c4290849061138a908890839089906000908990600401611e22565b6000604051808303818588803b1580156113a357600080fd5b505af11580156113b7573d6000803e3d6000fd5b505050505050505050565b60608160000361140557505060408051808201909152600181527f3000000000000000000000000000000000000000000000000000000000000000602082015290565b8160005b811561142f578061141981611e7a565b91506114289050600a83611eb2565b9150611409565b60008167ffffffffffffffff81111561144a5761144a611ec6565b6040519080825280601f01601f191660200182016040528015611474576020820181803683370190505b5090505b8415610a5d57611489600183611e0b565b9150611496600a86611ef5565b6114a1906030611f09565b60f81b8183815181106114b6576114b6611f21565b60200101907effffffffffffffffffffffffffffffffffffffffffffffffffffffffffffff1916908160001a9053506114f0600a86611eb2565b9450611478565b6000547501000000000000000000000000000000000000000000900460ff166115a2576040517f08c379a000000000000000000000000000000000000000000000000000000000815260206004820152602b60248201527f496e697469616c697a61626c653a20636f6e7472616374206973206e6f74206960448201527f6e697469616c697a696e6700000000000000000000000000000000000000000060648201526084016107d4565b60cc80547fffffffffffffffffffffffff00000000000000000000000000000000000000001661dead179055565b60006115de858585856117e5565b805190602001209050949350505050565b60006115ff87878787878761187e565b8051906020012090509695505050505050565b60003373ffffffffffffffffffffffffffffffffffffffff7f0000000000000000000000000000000000000000000000000000000000000000161480156112ec57507f000000000000000000000000000000000000000000000000000000000000000073ffffffffffffffffffffffffffffffffffffffff167f000000000000000000000000000000000000000000000000000000000000000073ffffffffffffffffffffffffffffffffffffffff16639bf62d826040518163ffffffff1660e01b8152600401602060405180830381865afa1580156116f6573d6000803e3d6000fd5b505050506040513d601f19601f8201168201806040525081019061171a9190611f50565b73ffffffffffffffffffffffffffffffffffffffff1614905090565b600073ffffffffffffffffffffffffffffffffffffffff82163014806117a757507f000000000000000000000000000000000000000000000000000000000000000073ffffffffffffffffffffffffffffffffffffffff168273ffffffffffffffffffffffffffffffffffffffff16145b92915050565b600080603f83619c4001026040850201603f5a021015949350505050565b600080600080845160208601878a8af19695505050505050565b6060848484846040516024016117fe9493929190611f6d565b604080517fffffffffffffffffffffffffffffffffffffffffffffffffffffffffffffffe08184030181529190526020810180517bffffffffffffffffffffffffffffffffffffffffffffffffffffffff167fcbd4ece9000000000000000000000000000000000000000000000000000000001790529050949350505050565b606086868686868660405160240161189b96959493929190611fb7565b604080517fffffffffffffffffffffffffffffffffffffffffffffffffffffffffffffffe08184030181529190526020810180517bffffffffffffffffffffffffffffffffffffffffffffffffffffffff167fd764ad0b0000000000000000000000000000000000000000000000000000000017905290509695505050505050565b73ffffffffffffffffffffffffffffffffffffffff811681146109f457600080fd5b60008083601f84011261195157600080fd5b50813567ffffffffffffffff81111561196957600080fd5b60208301915083602082850101111561198157600080fd5b9250929050565b803563ffffffff8116811461199c57600080fd5b919050565b600080600080606085870312156119b757600080fd5b84356119c28161191d565b9350602085013567ffffffffffffffff8111156119de57600080fd5b6119ea8782880161193f565b90945092506119fd905060408601611988565b905092959194509250565b60005b83811015611a23578181015183820152602001611a0b565b83811115611a32576000848401525b50505050565b60008151808452611a50816020860160208601611a08565b601f017fffffffffffffffffffffffffffffffffffffffffffffffffffffffffffffffe0169290920160200192915050565b602081526000611a956020830184611a38565b9392505050565b600060208284031215611aae57600080fd5b5035919050565b600080600060408486031215611aca57600080fd5b833567ffffffffffffffff811115611ae157600080fd5b611aed8682870161193f565b9094509250611b00905060208501611988565b90509250925092565b600080600080600080600060c0888a031215611b2457600080fd5b873596506020880135611b368161191d565b95506040880135611b468161191d565b9450606088013593506080880135925060a088013567ffffffffffffffff811115611b7057600080fd5b611b7c8a828b0161193f565b989b979a50959850939692959293505050565b8183528181602085013750600060208284010152600060207fffffffffffffffffffffffffffffffffffffffffffffffffffffffffffffffe0601f840116840101905092915050565b878152600073ffffffffffffffffffffffffffffffffffffffff808916602084015280881660408401525085606083015263ffffffff8516608083015260c060a0830152611c2a60c083018486611b8f565b9998505050505050505050565b73ffffffffffffffffffffffffffffffffffffffff86168152608060208201526000611c67608083018688611b8f565b905083604083015263ffffffff831660608301529695505050505050565b60008451611c97818460208901611a08565b80830190507f2e000000000000000000000000000000000000000000000000000000000000008082528551611cd3816001850160208a01611a08565b60019201918201528351611cee816002840160208801611a08565b0160020195945050505050565b7f4e487b7100000000000000000000000000000000000000000000000000000000600052601160045260246000fd5b600067ffffffffffffffff80831681851681830481118215151615611d5157611d51611cfb565b02949350505050565b7f4e487b7100000000000000000000000000000000000000000000000000000000600052601260045260246000fd5b600067ffffffffffffffff80841680611da457611da4611d5a565b92169190910492915050565b600067ffffffffffffffff808316818516808303821115611dd357611dd3611cfb565b01949350505050565b7f4e487b7100000000000000000000000000000000000000000000000000000000600052600160045260246000fd5b600082821015611e1d57611e1d611cfb565b500390565b73ffffffffffffffffffffffffffffffffffffffff8616815284602082015267ffffffffffffffff84166040820152821515606082015260a060808201526000611e6f60a0830184611a38565b979650505050505050565b60007fffffffffffffffffffffffffffffffffffffffffffffffffffffffffffffffff8203611eab57611eab611cfb565b5060010190565b600082611ec157611ec1611d5a565b500490565b7f4e487b7100000000000000000000000000000000000000000000000000000000600052604160045260246000fd5b600082611f0457611f04611d5a565b500690565b60008219821115611f1c57611f1c611cfb565b500190565b7f4e487b7100000000000000000000000000000000000000000000000000000000600052603260045260246000fd5b600060208284031215611f6257600080fd5b8151611a958161191d565b600073ffffffffffffffffffffffffffffffffffffffff808716835280861660208401525060806040830152611fa66080830185611a38565b905082606083015295945050505050565b868152600073ffffffffffffffffffffffffffffffffffffffff808816602084015280871660408401525084606083015283608083015260c060a083015261200260c0830184611a38565b9897505050505050505056fea164736f6c634300080f000a",
  "devdoc": {
    "version": 1,
    "kind": "dev",
    "methods": {
      "baseGas(bytes,uint32)": {
        "params": {
          "_message": "Message to compute the amount of required gas for.",
          "_minGasLimit": "Minimum desired gas limit when message goes to target."
        },
        "returns": {
          "_0": "Amount of gas required to guarantee message receipt."
        }
      },
      "constructor": {
        "params": {
          "_portal": "Address of the OptimismPortal contract on this network."
        }
      },
      "messageNonce()": {
        "returns": {
          "_0": "Nonce of the next message to be sent, with added message version."
        }
      },
      "relayMessage(uint256,address,address,uint256,uint256,bytes)": {
        "params": {
          "_message": "Message to send to the target.",
          "_minGasLimit": "Minimum amount of gas that the message can be executed with.",
          "_nonce": "Nonce of the message being relayed.",
          "_sender": "Address of the user who sent the message.",
          "_target": "Address that the message is targeted at.",
          "_value": "ETH value to send with the message."
        }
      },
      "sendMessage(address,bytes,uint32)": {
        "params": {
          "_message": "Message to trigger the target address with.",
          "_minGasLimit": "Minimum gas limit that the message can be executed with.",
          "_target": "Target contract or wallet address."
        }
      },
      "version()": {
        "returns": {
          "_0": "Semver contract version as a string."
        }
      },
      "xDomainMessageSender()": {
        "returns": {
          "_0": "Address of the sender of the currently executing message on the other chain."
        }
      }
    }
  },
  "numDeployments": 1,
  "solcInputHash": "0x0000000000000000000000000000000000000000000000000000000000000000",
  "storageLayout": {
    "storage": [
      {
        "astId": 67325,
        "contract": "src/L1/L1CrossDomainMessenger.sol:L1CrossDomainMessenger",
        "label": "spacer_0_0_20",
        "offset": 0,
        "slot": "0",
        "type": "t_address"
      },
      {
        "astId": 29031,
        "contract": "src/L1/L1CrossDomainMessenger.sol:L1CrossDomainMessenger",
        "label": "_initialized",
        "offset": 20,
        "slot": "0",
        "type": "t_uint8"
      },
      {
        "astId": 29034,
        "contract": "src/L1/L1CrossDomainMessenger.sol:L1CrossDomainMessenger",
        "label": "_initializing",
        "offset": 21,
        "slot": "0",
        "type": "t_bool"
      },
      {
        "astId": 67332,
        "contract": "src/L1/L1CrossDomainMessenger.sol:L1CrossDomainMessenger",
        "label": "spacer_1_0_1600",
        "offset": 0,
        "slot": "1",
        "type": "t_array(t_uint256)50_storage"
      },
      {
        "astId": 67335,
        "contract": "src/L1/L1CrossDomainMessenger.sol:L1CrossDomainMessenger",
        "label": "spacer_51_0_20",
        "offset": 0,
        "slot": "51",
        "type": "t_address"
      },
      {
        "astId": 67340,
        "contract": "src/L1/L1CrossDomainMessenger.sol:L1CrossDomainMessenger",
        "label": "spacer_52_0_1568",
        "offset": 0,
        "slot": "52",
        "type": "t_array(t_uint256)49_storage"
      },
      {
        "astId": 67343,
        "contract": "src/L1/L1CrossDomainMessenger.sol:L1CrossDomainMessenger",
        "label": "spacer_101_0_1",
        "offset": 0,
        "slot": "101",
        "type": "t_bool"
      },
      {
        "astId": 67348,
        "contract": "src/L1/L1CrossDomainMessenger.sol:L1CrossDomainMessenger",
        "label": "spacer_102_0_1568",
        "offset": 0,
        "slot": "102",
        "type": "t_array(t_uint256)49_storage"
      },
      {
        "astId": 67351,
        "contract": "src/L1/L1CrossDomainMessenger.sol:L1CrossDomainMessenger",
        "label": "spacer_151_0_32",
        "offset": 0,
        "slot": "151",
        "type": "t_uint256"
      },
      {
        "astId": 67356,
        "contract": "src/L1/L1CrossDomainMessenger.sol:L1CrossDomainMessenger",
        "label": "spacer_152_0_1568",
        "offset": 0,
        "slot": "152",
        "type": "t_array(t_uint256)49_storage"
      },
      {
        "astId": 67361,
        "contract": "src/L1/L1CrossDomainMessenger.sol:L1CrossDomainMessenger",
        "label": "spacer_201_0_32",
        "offset": 0,
        "slot": "201",
        "type": "t_mapping(t_bytes32,t_bool)"
      },
      {
        "astId": 67366,
        "contract": "src/L1/L1CrossDomainMessenger.sol:L1CrossDomainMessenger",
        "label": "spacer_202_0_32",
        "offset": 0,
        "slot": "202",
        "type": "t_mapping(t_bytes32,t_bool)"
      },
      {
        "astId": 67414,
        "contract": "src/L1/L1CrossDomainMessenger.sol:L1CrossDomainMessenger",
        "label": "successfulMessages",
        "offset": 0,
        "slot": "203",
        "type": "t_mapping(t_bytes32,t_bool)"
      },
      {
        "astId": 67417,
        "contract": "src/L1/L1CrossDomainMessenger.sol:L1CrossDomainMessenger",
        "label": "xDomainMsgSender",
        "offset": 0,
        "slot": "204",
        "type": "t_address"
      },
      {
        "astId": 67420,
        "contract": "src/L1/L1CrossDomainMessenger.sol:L1CrossDomainMessenger",
        "label": "msgNonce",
        "offset": 0,
        "slot": "205",
        "type": "t_uint240"
      },
      {
        "astId": 67425,
        "contract": "src/L1/L1CrossDomainMessenger.sol:L1CrossDomainMessenger",
        "label": "failedMessages",
        "offset": 0,
        "slot": "206",
        "type": "t_mapping(t_bytes32,t_bool)"
      },
      {
        "astId": 67430,
        "contract": "src/L1/L1CrossDomainMessenger.sol:L1CrossDomainMessenger",
        "label": "__gap",
        "offset": 0,
        "slot": "207",
        "type": "t_array(t_uint256)42_storage"
      }
    ],
    "types": {
      "t_address": {
        "encoding": "inplace",
        "label": "address",
        "numberOfBytes": "20"
      },
      "t_array(t_uint256)42_storage": {
        "encoding": "inplace",
        "label": "uint256[42]",
        "numberOfBytes": "1344",
        "base": "t_uint256"
      },
      "t_array(t_uint256)49_storage": {
        "encoding": "inplace",
        "label": "uint256[49]",
        "numberOfBytes": "1568",
        "base": "t_uint256"
      },
      "t_array(t_uint256)50_storage": {
        "encoding": "inplace",
        "label": "uint256[50]",
        "numberOfBytes": "1600",
        "base": "t_uint256"
      },
      "t_bool": {
        "encoding": "inplace",
        "label": "bool",
        "numberOfBytes": "1"
      },
      "t_bytes32": {
        "encoding": "inplace",
        "label": "bytes32",
        "numberOfBytes": "32"
      },
      "t_mapping(t_bytes32,t_bool)": {
        "encoding": "mapping",
        "key": "t_bytes32",
        "label": "mapping(bytes32 => bool)",
        "numberOfBytes": "32",
        "value": "t_bool"
      },
      "t_uint240": {
        "encoding": "inplace",
        "label": "uint240",
        "numberOfBytes": "30"
      },
      "t_uint256": {
        "encoding": "inplace",
        "label": "uint256",
        "numberOfBytes": "32"
      },
      "t_uint8": {
        "encoding": "inplace",
        "label": "uint8",
        "numberOfBytes": "1"
      }
    }
  },
  "transactionHash": "0xaaae208175e9d54bae8e1c64de771b9de22facbcae9129e90f7a764ea909ea06",
  "userdoc": {
    "version": 1,
    "kind": "user",
    "methods": {
      "MESSAGE_VERSION()": {
        "notice": "Current message version identifier."
      },
      "MIN_GAS_CALLDATA_OVERHEAD()": {
        "notice": "Extra gas added to base gas for each byte of calldata in a message."
      },
      "MIN_GAS_DYNAMIC_OVERHEAD_DENOMINATOR()": {
        "notice": "Denominator for dynamic overhead added to the base gas for a message."
      },
      "MIN_GAS_DYNAMIC_OVERHEAD_NUMERATOR()": {
        "notice": "Numerator for dynamic overhead added to the base gas for a message."
      },
      "OTHER_MESSENGER()": {
        "notice": "Address of the paired CrossDomainMessenger contract on the other chain."
      },
      "PORTAL()": {
        "notice": "Address of the OptimismPortal."
      },
      "RELAY_CALL_OVERHEAD()": {
        "notice": "Gas reserved for performing the external call in `relayMessage`."
      },
      "RELAY_CONSTANT_OVERHEAD()": {
        "notice": "Constant overhead added to the base gas for a message."
      },
      "RELAY_GAS_CHECK_BUFFER()": {
        "notice": "Gas reserved for the execution between the `hasMinGas` check and the external         call in `relayMessage`."
      },
      "RELAY_RESERVED_GAS()": {
        "notice": "Gas reserved for finalizing the execution of `relayMessage` after the safe call."
      },
      "baseGas(bytes,uint32)": {
        "notice": "Computes the amount of gas required to guarantee that a given message will be         received on the other chain without running out of gas. Guaranteeing that a message         will not run out of gas is important because this ensures that a message can always         be replayed on the other chain if it fails to execute completely."
      },
      "constructor": {
        "notice": "Constructs the L1CrossDomainMessenger contract."
      },
      "failedMessages(bytes32)": {
        "notice": "Mapping of message hashes to a boolean if and only if the message has failed to be         executed at least once. A message will not be present in this mapping if it         successfully executed on the first attempt."
      },
      "initialize()": {
        "notice": "Initializes the contract."
      },
      "messageNonce()": {
        "notice": "Retrieves the next message nonce. Message version will be added to the upper two         bytes of the message nonce. Message version allows us to treat messages as having         different structures."
      },
      "relayMessage(uint256,address,address,uint256,uint256,bytes)": {
        "notice": "Relays a message that was sent by the other CrossDomainMessenger contract. Can only         be executed via cross-chain call from the other messenger OR if the message was         already received once and is currently being replayed."
      },
      "sendMessage(address,bytes,uint32)": {
        "notice": "Sends a message to some target address on the other chain. Note that if the call         always reverts, then the message will be unrelayable, and any ETH sent will be         permanently locked. The same will occur if the target on the other chain is         considered unsafe (see the _isUnsafeTarget() function)."
      },
      "successfulMessages(bytes32)": {
        "notice": "Mapping of message hashes to boolean receipt values. Note that a message will only         be present in this mapping if it has successfully been relayed on this chain, and         can therefore not be relayed again."
      },
      "version()": {
        "notice": "Returns the full semver contract version."
      },
      "xDomainMessageSender()": {
        "notice": "Retrieves the address of the contract or wallet that initiated the currently         executing message on the other chain. Will throw an error if there is no message         currently being executed. Allows the recipient of a call to see who triggered it."
      }
    },
    "events": {
      "FailedRelayedMessage(bytes32)": {
        "notice": "Emitted whenever a message fails to be relayed on this chain."
      },
      "RelayedMessage(bytes32)": {
        "notice": "Emitted whenever a message is successfully relayed on this chain."
      },
      "SentMessage(address,address,bytes,uint256,uint256)": {
        "notice": "Emitted whenever a message is sent to the other chain."
      },
      "SentMessageExtension1(address,uint256)": {
        "notice": "Additional event data to emit, required as of Bedrock. Cannot be merged with the         SentMessage event without breaking the ABI of this contract, this is good enough."
      }
    },
    "notice": "The L1CrossDomainMessenger is a message passing interface between L1 and L2 responsible         for sending and receiving data on the L1 side. Users are encouraged to use this         interface instead of interacting with lower-level contracts directly."
  }
}