{
  "abi": [
    {
      "inputs": [
        {
          "internalType": "contract L2OutputOracle",
          "name": "_l2Oracle",
          "type": "address"
        },
        {
          "internalType": "address",
          "name": "_guardian",
          "type": "address"
        },
        {
          "internalType": "bool",
          "name": "_paused",
          "type": "bool"
        },
        {
          "internalType": "contract SystemConfig",
          "name": "_config",
          "type": "address"
        }
      ],
      "stateMutability": "nonpayable",
      "type": "constructor"
    },
    {
      "anonymous": false,
      "inputs": [
        {
          "indexed": false,
          "internalType": "uint8",
          "name": "version",
          "type": "uint8"
        }
      ],
      "name": "Initialized",
      "type": "event"
    },
    {
      "anonymous": false,
      "inputs": [
        {
          "indexed": false,
          "internalType": "address",
          "name": "account",
          "type": "address"
        }
      ],
      "name": "Paused",
      "type": "event"
    },
    {
      "anonymous": false,
      "inputs": [
        {
          "indexed": true,
          "internalType": "address",
          "name": "from",
          "type": "address"
        },
        {
          "indexed": true,
          "internalType": "address",
          "name": "to",
          "type": "address"
        },
        {
          "indexed": true,
          "internalType": "uint256",
          "name": "version",
          "type": "uint256"
        },
        {
          "indexed": false,
          "internalType": "bytes",
          "name": "opaqueData",
          "type": "bytes"
        }
      ],
      "name": "TransactionDeposited",
      "type": "event"
    },
    {
      "anonymous": false,
      "inputs": [
        {
          "indexed": false,
          "internalType": "address",
          "name": "account",
          "type": "address"
        }
      ],
      "name": "Unpaused",
      "type": "event"
    },
    {
      "anonymous": false,
      "inputs": [
        {
          "indexed": true,
          "internalType": "bytes32",
          "name": "withdrawalHash",
          "type": "bytes32"
        },
        {
          "indexed": false,
          "internalType": "bool",
          "name": "success",
          "type": "bool"
        }
      ],
      "name": "WithdrawalFinalized",
      "type": "event"
    },
    {
      "anonymous": false,
      "inputs": [
        {
          "indexed": true,
          "internalType": "bytes32",
          "name": "withdrawalHash",
          "type": "bytes32"
        },
        {
          "indexed": true,
          "internalType": "address",
          "name": "from",
          "type": "address"
        },
        {
          "indexed": true,
          "internalType": "address",
          "name": "to",
          "type": "address"
        }
      ],
      "name": "WithdrawalProven",
      "type": "event"
    },
    {
      "inputs": [],
      "name": "GUARDIAN",
      "outputs": [
        {
          "internalType": "address",
          "name": "",
          "type": "address"
        }
      ],
      "stateMutability": "view",
      "type": "function"
    },
    {
      "inputs": [],
      "name": "L2_ORACLE",
      "outputs": [
        {
          "internalType": "contract L2OutputOracle",
          "name": "",
          "type": "address"
        }
      ],
      "stateMutability": "view",
      "type": "function"
    },
    {
      "inputs": [],
      "name": "SYSTEM_CONFIG",
      "outputs": [
        {
          "internalType": "contract SystemConfig",
          "name": "",
          "type": "address"
        }
      ],
      "stateMutability": "view",
      "type": "function"
    },
    {
      "inputs": [
        {
          "internalType": "address",
          "name": "_to",
          "type": "address"
        },
        {
          "internalType": "uint256",
          "name": "_value",
          "type": "uint256"
        },
        {
          "internalType": "uint64",
          "name": "_gasLimit",
          "type": "uint64"
        },
        {
          "internalType": "bool",
          "name": "_isCreation",
          "type": "bool"
        },
        {
          "internalType": "bytes",
          "name": "_data",
          "type": "bytes"
        }
      ],
      "name": "depositTransaction",
      "outputs": [],
      "stateMutability": "payable",
      "type": "function"
    },
    {
      "inputs": [],
      "name": "donateETH",
      "outputs": [],
      "stateMutability": "payable",
      "type": "function"
    },
    {
      "inputs": [
        {
          "components": [
            {
              "internalType": "uint256",
              "name": "nonce",
              "type": "uint256"
            },
            {
              "internalType": "address",
              "name": "sender",
              "type": "address"
            },
            {
              "internalType": "address",
              "name": "target",
              "type": "address"
            },
            {
              "internalType": "uint256",
              "name": "value",
              "type": "uint256"
            },
            {
              "internalType": "uint256",
              "name": "gasLimit",
              "type": "uint256"
            },
            {
              "internalType": "bytes",
              "name": "data",
              "type": "bytes"
            }
          ],
          "internalType": "struct Types.WithdrawalTransaction",
          "name": "_tx",
          "type": "tuple"
        }
      ],
      "name": "finalizeWithdrawalTransaction",
      "outputs": [],
      "stateMutability": "nonpayable",
      "type": "function"
    },
    {
      "inputs": [
        {
          "internalType": "bytes32",
          "name": "",
          "type": "bytes32"
        }
      ],
      "name": "finalizedWithdrawals",
      "outputs": [
        {
          "internalType": "bool",
          "name": "",
          "type": "bool"
        }
      ],
      "stateMutability": "view",
      "type": "function"
    },
    {
      "inputs": [
        {
          "internalType": "bool",
          "name": "_paused",
          "type": "bool"
        }
      ],
      "name": "initialize",
      "outputs": [],
      "stateMutability": "nonpayable",
      "type": "function"
    },
    {
      "inputs": [
        {
          "internalType": "uint256",
          "name": "_l2OutputIndex",
          "type": "uint256"
        }
      ],
      "name": "isOutputFinalized",
      "outputs": [
        {
          "internalType": "bool",
          "name": "",
          "type": "bool"
        }
      ],
      "stateMutability": "view",
      "type": "function"
    },
    {
      "inputs": [],
      "name": "l2Sender",
      "outputs": [
        {
          "internalType": "address",
          "name": "",
          "type": "address"
        }
      ],
      "stateMutability": "view",
      "type": "function"
    },
    {
      "inputs": [
        {
          "internalType": "uint64",
          "name": "_byteCount",
          "type": "uint64"
        }
      ],
      "name": "minimumGasLimit",
      "outputs": [
        {
          "internalType": "uint64",
          "name": "",
          "type": "uint64"
        }
      ],
      "stateMutability": "pure",
      "type": "function"
    },
    {
      "inputs": [],
      "name": "params",
      "outputs": [
        {
          "internalType": "uint128",
          "name": "prevBaseFee",
          "type": "uint128"
        },
        {
          "internalType": "uint64",
          "name": "prevBoughtGas",
          "type": "uint64"
        },
        {
          "internalType": "uint64",
          "name": "prevBlockNum",
          "type": "uint64"
        }
      ],
      "stateMutability": "view",
      "type": "function"
    },
    {
      "inputs": [],
      "name": "pause",
      "outputs": [],
      "stateMutability": "nonpayable",
      "type": "function"
    },
    {
      "inputs": [],
      "name": "paused",
      "outputs": [
        {
          "internalType": "bool",
          "name": "",
          "type": "bool"
        }
      ],
      "stateMutability": "view",
      "type": "function"
    },
    {
      "inputs": [
        {
          "components": [
            {
              "internalType": "uint256",
              "name": "nonce",
              "type": "uint256"
            },
            {
              "internalType": "address",
              "name": "sender",
              "type": "address"
            },
            {
              "internalType": "address",
              "name": "target",
              "type": "address"
            },
            {
              "internalType": "uint256",
              "name": "value",
              "type": "uint256"
            },
            {
              "internalType": "uint256",
              "name": "gasLimit",
              "type": "uint256"
            },
            {
              "internalType": "bytes",
              "name": "data",
              "type": "bytes"
            }
          ],
          "internalType": "struct Types.WithdrawalTransaction",
          "name": "_tx",
          "type": "tuple"
        },
        {
          "internalType": "uint256",
          "name": "_l2OutputIndex",
          "type": "uint256"
        },
        {
          "components": [
            {
              "internalType": "bytes32",
              "name": "version",
              "type": "bytes32"
            },
            {
              "internalType": "bytes32",
              "name": "stateRoot",
              "type": "bytes32"
            },
            {
              "internalType": "bytes32",
              "name": "messagePasserStorageRoot",
              "type": "bytes32"
            },
            {
              "internalType": "bytes32",
              "name": "latestBlockhash",
              "type": "bytes32"
            }
          ],
          "internalType": "struct Types.OutputRootProof",
          "name": "_outputRootProof",
          "type": "tuple"
        },
        {
          "internalType": "bytes[]",
          "name": "_withdrawalProof",
          "type": "bytes[]"
        }
      ],
      "name": "proveWithdrawalTransaction",
      "outputs": [],
      "stateMutability": "nonpayable",
      "type": "function"
    },
    {
      "inputs": [
        {
          "internalType": "bytes32",
          "name": "",
          "type": "bytes32"
        }
      ],
      "name": "provenWithdrawals",
      "outputs": [
        {
          "internalType": "bytes32",
          "name": "outputRoot",
          "type": "bytes32"
        },
        {
          "internalType": "uint128",
          "name": "timestamp",
          "type": "uint128"
        },
        {
          "internalType": "uint128",
          "name": "l2OutputIndex",
          "type": "uint128"
        }
      ],
      "stateMutability": "view",
      "type": "function"
    },
    {
      "inputs": [],
      "name": "unpause",
      "outputs": [],
      "stateMutability": "nonpayable",
      "type": "function"
    },
    {
      "inputs": [],
      "name": "version",
      "outputs": [
        {
          "internalType": "string",
          "name": "",
          "type": "string"
        }
      ],
      "stateMutability": "view",
      "type": "function"
    },
    {
      "stateMutability": "payable",
      "type": "receive"
    }
  ],
  "address": "0x7286b663780F369151Ab98e59219df3319694672",
  "args": [
    "0x3640B535DEe7a2cdafe1d6554D8e1fb9Eb2e57B5",
    "0x80Cbc1f7fd60B7026C0088e5eD58Fc6Ce1180141",
    "true",
    "0x1C1f3CA6856557871367Ab9F01F94E70F76101d5"
  ],
  "bytecode": "0x6101406040523480156200001257600080fd5b50604051620059b1380380620059b1833981016040819052620000359162000296565b6001608052600760a052600260c0526001600160a01b0380851660e052838116610120528116610100526200006a8262000074565b5050505062000302565b600054610100900460ff1615808015620000955750600054600160ff909116105b80620000c55750620000b230620001cb60201b62001c891760201c565b158015620000c5575060005460ff166001145b6200012e5760405162461bcd60e51b815260206004820152602e60248201527f496e697469616c697a61626c653a20636f6e747261637420697320616c72656160448201526d191e481a5b9a5d1a585b1a5e995960921b60648201526084015b60405180910390fd5b6000805460ff19166001179055801562000152576000805461ff0019166101001790555b603280546001600160a01b03191661dead1790556035805483151560ff1990911617905562000180620001da565b8015620001c7576000805461ff0019169055604051600181527f7f26b83ff96e1f2b6a682f133852f6798a09c465da95921460cefb38474024989060200160405180910390a15b5050565b6001600160a01b03163b151590565b600054610100900460ff16620002475760405162461bcd60e51b815260206004820152602b60248201527f496e697469616c697a61626c653a20636f6e7472616374206973206e6f74206960448201526a6e697469616c697a696e6760a81b606482015260840162000125565b60408051606081018252633b9aca0080825260006020830152436001600160401b031691909201819052600160c01b0217600155565b6001600160a01b03811681146200029357600080fd5b50565b60008060008060808587031215620002ad57600080fd5b8451620002ba816200027d565b6020860151909450620002cd816200027d565b60408601519093508015158114620002e457600080fd5b6060860151909250620002f7816200027d565b939692955090935050565b60805160a05160c05160e051610100516101205161562062000391600039600081816102690152818161079d01526110a00152600081816104c801526123d701526000818161016a01528181610a0601528181610be701528181610ffc015281816113b60152818161162801526121c301526000610f6701526000610f3e01526000610f1501526156206000f3fe60806040526004361061012c5760003560e01c80638c3152e9116100a5578063cff0ab9611610074578063e965084c11610059578063e965084c14610417578063e9e05c42146104a3578063f0498750146104b657600080fd5b8063cff0ab9614610356578063d53a822f146103f757600080fd5b80638c3152e9146102a05780639bf62d82146102c0578063a14238e7146102ed578063a35d99df1461031d57600080fd5b80635c975abb116100fc578063724c184c116100e1578063724c184c146102575780638456cb591461028b5780638b4c40b01461015157600080fd5b80635c975abb1461020d5780636dbffb781461023757600080fd5b80621c2ff6146101585780633f4ba83a146101b65780634870496f146101cb57806354fd4d50146101eb57600080fd5b36610153576101513334620186a06000604051806020016040528060008152506104ea565b005b600080fd5b34801561016457600080fd5b5061018c7f000000000000000000000000000000000000000000000000000000000000000081565b60405173ffffffffffffffffffffffffffffffffffffffff90911681526020015b60405180910390f35b3480156101c257600080fd5b50610151610785565b3480156101d757600080fd5b506101516101e6366004614bd2565b6108a8565b3480156101f757600080fd5b50610200610f0e565b6040516101ad9190614d28565b34801561021957600080fd5b506035546102279060ff1681565b60405190151581526020016101ad565b34801561024357600080fd5b50610227610252366004614d3b565b610fb1565b34801561026357600080fd5b5061018c7f000000000000000000000000000000000000000000000000000000000000000081565b34801561029757600080fd5b50610151611088565b3480156102ac57600080fd5b506101516102bb366004614d54565b6111a8565b3480156102cc57600080fd5b5060325461018c9073ffffffffffffffffffffffffffffffffffffffff1681565b3480156102f957600080fd5b50610227610308366004614d3b565b60336020526000908152604090205460ff1681565b34801561032957600080fd5b5061033d610338366004614da1565b611a83565b60405167ffffffffffffffff90911681526020016101ad565b34801561036257600080fd5b506001546103be906fffffffffffffffffffffffffffffffff81169067ffffffffffffffff7001000000000000000000000000000000008204811691780100000000000000000000000000000000000000000000000090041683565b604080516fffffffffffffffffffffffffffffffff909416845267ffffffffffffffff92831660208501529116908201526060016101ad565b34801561040357600080fd5b50610151610412366004614dcc565b611a9c565b34801561042357600080fd5b50610475610432366004614d3b565b603460205260009081526040902080546001909101546fffffffffffffffffffffffffffffffff8082169170010000000000000000000000000000000090041683565b604080519384526fffffffffffffffffffffffffffffffff92831660208501529116908201526060016101ad565b6101516104b1366004614de7565b6104ea565b3480156104c257600080fd5b5061018c7f000000000000000000000000000000000000000000000000000000000000000081565b8260005a905083156105a15773ffffffffffffffffffffffffffffffffffffffff8716156105a157604080517f08c379a00000000000000000000000000000000000000000000000000000000081526020600482015260248101919091527f4f7074696d69736d506f7274616c3a206d7573742073656e6420746f2061646460448201527f72657373283029207768656e206372656174696e67206120636f6e747261637460648201526084015b60405180910390fd5b6105ab8351611a83565b67ffffffffffffffff168567ffffffffffffffff16101561064e576040517f08c379a000000000000000000000000000000000000000000000000000000000815260206004820152602360248201527f4f7074696d69736d506f7274616c3a20676173206c696d697420746f6f20736d60448201527f616c6c00000000000000000000000000000000000000000000000000000000006064820152608401610598565b6201d4c0835111156106bc576040517f08c379a000000000000000000000000000000000000000000000000000000000815260206004820152601e60248201527f4f7074696d69736d506f7274616c3a206461746120746f6f206c6172676500006044820152606401610598565b333281146106dd575033731111000000000000000000000000000000001111015b600034888888886040516020016106f8959493929190614e60565b604051602081830303815290604052905060008973ffffffffffffffffffffffffffffffffffffffff168373ffffffffffffffffffffffffffffffffffffffff167fb3813568d9991fc951961fcb4c784893574240a28925604d09fc577c55bb7c32846040516107689190614d28565b60405180910390a4505061077c8282611ca5565b50505050505050565b3373ffffffffffffffffffffffffffffffffffffffff7f0000000000000000000000000000000000000000000000000000000000000000161461084a576040517f08c379a000000000000000000000000000000000000000000000000000000000815260206004820152602960248201527f4f7074696d69736d506f7274616c3a206f6e6c7920677561726469616e20636160448201527f6e20756e706175736500000000000000000000000000000000000000000000006064820152608401610598565b603580547fffffffffffffffffffffffffffffffffffffffffffffffffffffffffffffff001690556040513381527f5db9ee0a495bf2e6ff9c91a7834c1ba4fdd244a5e8aa4e537bd38aeae4b073aa906020015b60405180910390a1565b60355460ff1615610915576040517f08c379a000000000000000000000000000000000000000000000000000000000815260206004820152601660248201527f4f7074696d69736d506f7274616c3a20706175736564000000000000000000006044820152606401610598565b3073ffffffffffffffffffffffffffffffffffffffff16856040015173ffffffffffffffffffffffffffffffffffffffff16036109d4576040517f08c379a000000000000000000000000000000000000000000000000000000000815260206004820152603f60248201527f4f7074696d69736d506f7274616c3a20796f752063616e6e6f742073656e642060448201527f6d6573736167657320746f2074686520706f7274616c20636f6e7472616374006064820152608401610598565b6040517fa25ae557000000000000000000000000000000000000000000000000000000008152600481018590526000907f000000000000000000000000000000000000000000000000000000000000000073ffffffffffffffffffffffffffffffffffffffff169063a25ae55790602401606060405180830381865afa158015610a62573d6000803e3d6000fd5b505050506040513d601f19601f82011682018060405250810190610a869190614ee5565b519050610aa0610a9b36869003860186614f4a565b611fd2565b8114610b2e576040517f08c379a000000000000000000000000000000000000000000000000000000000815260206004820152602960248201527f4f7074696d69736d506f7274616c3a20696e76616c6964206f7574707574207260448201527f6f6f742070726f6f6600000000000000000000000000000000000000000000006064820152608401610598565b6000610b398761202e565b6000818152603460209081526040918290208251606081018452815481526001909101546fffffffffffffffffffffffffffffffff8082169383018490527001000000000000000000000000000000009091041692810192909252919250901580610c6b5750805160408083015190517fa25ae5570000000000000000000000000000000000000000000000000000000081526fffffffffffffffffffffffffffffffff90911660048201527f000000000000000000000000000000000000000000000000000000000000000073ffffffffffffffffffffffffffffffffffffffff169063a25ae55790602401606060405180830381865afa158015610c43573d6000803e3d6000fd5b505050506040513d601f19601f82011682018060405250810190610c679190614ee5565b5114155b610cf7576040517f08c379a000000000000000000000000000000000000000000000000000000000815260206004820152603760248201527f4f7074696d69736d506f7274616c3a207769746864726177616c20686173682060448201527f68617320616c7265616479206265656e2070726f76656e0000000000000000006064820152608401610598565b60408051602081018490526000918101829052606001604080517fffffffffffffffffffffffffffffffffffffffffffffffffffffffffffffffe081840301815282825280516020918201209083018190529250610dc09101604080517fffffffffffffffffffffffffffffffffffffffffffffffffffffffffffffffe0818403018152828201909152600182527f0100000000000000000000000000000000000000000000000000000000000000602083015290610db6888a614fb0565b8a6040013561205e565b610e4c576040517f08c379a000000000000000000000000000000000000000000000000000000000815260206004820152603260248201527f4f7074696d69736d506f7274616c3a20696e76616c696420776974686472617760448201527f616c20696e636c7573696f6e2070726f6f6600000000000000000000000000006064820152608401610598565b604080516060810182528581526fffffffffffffffffffffffffffffffff42811660208084019182528c831684860190815260008981526034835286812095518655925190518416700100000000000000000000000000000000029316929092176001909301929092558b830151908c0151925173ffffffffffffffffffffffffffffffffffffffff918216939091169186917f67a6208cfcc0801d50f6cbe764733f4fddf66ac0b04442061a8a8c0cb6b63f629190a4505050505050505050565b6060610f397f0000000000000000000000000000000000000000000000000000000000000000612082565b610f627f0000000000000000000000000000000000000000000000000000000000000000612082565b610f8b7f0000000000000000000000000000000000000000000000000000000000000000612082565b604051602001610f9d93929190615034565b604051602081830303815290604052905090565b6040517fa25ae557000000000000000000000000000000000000000000000000000000008152600481018290526000906110829073ffffffffffffffffffffffffffffffffffffffff7f0000000000000000000000000000000000000000000000000000000000000000169063a25ae55790602401606060405180830381865afa158015611043573d6000803e3d6000fd5b505050506040513d601f19601f820116820180604052508101906110679190614ee5565b602001516fffffffffffffffffffffffffffffffff166121bf565b92915050565b3373ffffffffffffffffffffffffffffffffffffffff7f0000000000000000000000000000000000000000000000000000000000000000161461114d576040517f08c379a000000000000000000000000000000000000000000000000000000000815260206004820152602760248201527f4f7074696d69736d506f7274616c3a206f6e6c7920677561726469616e20636160448201527f6e207061757365000000000000000000000000000000000000000000000000006064820152608401610598565b603580547fffffffffffffffffffffffffffffffffffffffffffffffffffffffffffffff001660011790556040513381527f62e78cea01bee320cd4e420270b5ea74000d11b0c9f74754ebdbfc544b05a2589060200161089e565b60355460ff1615611215576040517f08c379a000000000000000000000000000000000000000000000000000000000815260206004820152601660248201527f4f7074696d69736d506f7274616c3a20706175736564000000000000000000006044820152606401610598565b60325473ffffffffffffffffffffffffffffffffffffffff1661dead146112be576040517f08c379a000000000000000000000000000000000000000000000000000000000815260206004820152603f60248201527f4f7074696d69736d506f7274616c3a2063616e206f6e6c79207472696767657260448201527f206f6e65207769746864726177616c20706572207472616e73616374696f6e006064820152608401610598565b60006112c98261202e565b60008181526034602090815260408083208151606081018352815481526001909101546fffffffffffffffffffffffffffffffff808216948301859052700100000000000000000000000000000000909104169181019190915292935090036113b4576040517f08c379a000000000000000000000000000000000000000000000000000000000815260206004820152603260248201527f4f7074696d69736d506f7274616c3a207769746864726177616c20686173206e60448201527f6f74206265656e2070726f76656e2079657400000000000000000000000000006064820152608401610598565b7f000000000000000000000000000000000000000000000000000000000000000073ffffffffffffffffffffffffffffffffffffffff1663887862726040518163ffffffff1660e01b8152600401602060405180830381865afa15801561141f573d6000803e3d6000fd5b505050506040513d601f19601f8201168201806040525081019061144391906150aa565b81602001516fffffffffffffffffffffffffffffffff16101561150e576040517f08c379a000000000000000000000000000000000000000000000000000000000815260206004820152604b60248201527f4f7074696d69736d506f7274616c3a207769746864726177616c2074696d657360448201527f74616d70206c657373207468616e204c32204f7261636c65207374617274696e60648201527f672074696d657374616d70000000000000000000000000000000000000000000608482015260a401610598565b61152d81602001516fffffffffffffffffffffffffffffffff166121bf565b6115df576040517f08c379a000000000000000000000000000000000000000000000000000000000815260206004820152604560248201527f4f7074696d69736d506f7274616c3a2070726f76656e2077697468647261776160448201527f6c2066696e616c697a6174696f6e20706572696f6420686173206e6f7420656c60648201527f6170736564000000000000000000000000000000000000000000000000000000608482015260a401610598565b60408181015190517fa25ae5570000000000000000000000000000000000000000000000000000000081526fffffffffffffffffffffffffffffffff90911660048201526000907f000000000000000000000000000000000000000000000000000000000000000073ffffffffffffffffffffffffffffffffffffffff169063a25ae55790602401606060405180830381865afa158015611684573d6000803e3d6000fd5b505050506040513d601f19601f820116820180604052508101906116a89190614ee5565b8251815191925014611762576040517f08c379a000000000000000000000000000000000000000000000000000000000815260206004820152604960248201527f4f7074696d69736d506f7274616c3a206f757470757420726f6f742070726f7660448201527f656e206973206e6f74207468652073616d652061732063757272656e74206f7560648201527f7470757420726f6f740000000000000000000000000000000000000000000000608482015260a401610598565b61178181602001516fffffffffffffffffffffffffffffffff166121bf565b611833576040517f08c379a000000000000000000000000000000000000000000000000000000000815260206004820152604360248201527f4f7074696d69736d506f7274616c3a206f75747075742070726f706f73616c2060448201527f66696e616c697a6174696f6e20706572696f6420686173206e6f7420656c617060648201527f7365640000000000000000000000000000000000000000000000000000000000608482015260a401610598565b60008381526033602052604090205460ff16156118d2576040517f08c379a000000000000000000000000000000000000000000000000000000000815260206004820152603560248201527f4f7074696d69736d506f7274616c3a207769746864726177616c20686173206160448201527f6c7265616479206265656e2066696e616c697a656400000000000000000000006064820152608401610598565b600083815260336020908152604080832080547fffffffffffffffffffffffffffffffffffffffffffffffffffffffffffffff00166001179055908601516032805473ffffffffffffffffffffffffffffffffffffffff9092167fffffffffffffffffffffffff00000000000000000000000000000000000000009092169190911790558501516080860151606087015160a088015161197493929190612262565b603280547fffffffffffffffffffffffff00000000000000000000000000000000000000001661dead17905560405190915084907fdb5c7652857aa163daadd670e116628fb42e869d8ac4251ef8971d9e5727df1b906119d990841515815260200190565b60405180910390a2801580156119ef5750326001145b15611a7c576040517f08c379a000000000000000000000000000000000000000000000000000000000815260206004820152602160248201527f4f7074696d69736d506f7274616c3a207769746864726177616c206661696c6560448201527f64000000000000000000000000000000000000000000000000000000000000006064820152608401610598565b5050505050565b6000611a908260106150f2565b61108290615208615122565b600054610100900460ff1615808015611abc5750600054600160ff909116105b80611ad65750303b158015611ad6575060005460ff166001145b611b62576040517f08c379a000000000000000000000000000000000000000000000000000000000815260206004820152602e60248201527f496e697469616c697a61626c653a20636f6e747261637420697320616c72656160448201527f647920696e697469616c697a65640000000000000000000000000000000000006064820152608401610598565b600080547fffffffffffffffffffffffffffffffffffffffffffffffffffffffffffffff001660011790558015611bc057600080547fffffffffffffffffffffffffffffffffffffffffffffffffffffffffffff00ff166101001790555b603280547fffffffffffffffffffffffff00000000000000000000000000000000000000001661dead179055603580548315157fffffffffffffffffffffffffffffffffffffffffffffffffffffffffffffff00909116179055611c226122c0565b8015611c8557600080547fffffffffffffffffffffffffffffffffffffffffffffffffffffffffffff00ff169055604051600181527f7f26b83ff96e1f2b6a682f133852f6798a09c465da95921460cefb38474024989060200160405180910390a15b5050565b73ffffffffffffffffffffffffffffffffffffffff163b151590565b600154600090611cdb907801000000000000000000000000000000000000000000000000900467ffffffffffffffff164361514e565b90506000611ce76123a3565b90506000816020015160ff16826000015163ffffffff16611d089190615194565b90508215611e3f57600154600090611d3f908390700100000000000000000000000000000000900467ffffffffffffffff166151fc565b90506000836040015160ff1683611d569190615270565b600154611d769084906fffffffffffffffffffffffffffffffff16615270565b611d809190615194565b600154909150600090611dd190611daa9084906fffffffffffffffffffffffffffffffff1661532c565b866060015163ffffffff168760a001516fffffffffffffffffffffffffffffffff16612469565b90506001861115611e0057611dfd611daa82876040015160ff1660018a611df8919061514e565b612488565b90505b6fffffffffffffffffffffffffffffffff16780100000000000000000000000000000000000000000000000067ffffffffffffffff4316021760015550505b60018054869190601090611e72908490700100000000000000000000000000000000900467ffffffffffffffff16615122565b92506101000a81548167ffffffffffffffff021916908367ffffffffffffffff160217905550816000015163ffffffff16600160000160109054906101000a900467ffffffffffffffff1667ffffffffffffffff161315611f55576040517f08c379a000000000000000000000000000000000000000000000000000000000815260206004820152603e60248201527f5265736f757263654d65746572696e673a2063616e6e6f7420627579206d6f7260448201527f6520676173207468616e20617661696c61626c6520676173206c696d697400006064820152608401610598565b600154600090611f81906fffffffffffffffffffffffffffffffff1667ffffffffffffffff88166153a0565b90506000611f9348633b9aca006124dd565b611f9d90836153dd565b905060005a611fac908861514e565b905080821115611fc857611fc8611fc3828461514e565b6124f4565b5050505050505050565b60008160000151826020015183604001518460600151604051602001612011949392919093845260208401929092526040830152606082015260800190565b604051602081830303815290604052805190602001209050919050565b80516020808301516040808501516060860151608087015160a088015193516000976120119790969591016153f1565b60008061206a86612522565b905061207881868686612554565b9695505050505050565b6060816000036120c557505060408051808201909152600181527f3000000000000000000000000000000000000000000000000000000000000000602082015290565b8160005b81156120ef57806120d981615448565b91506120e89050600a836153dd565b91506120c9565b60008167ffffffffffffffff81111561210a5761210a6149f8565b6040519080825280601f01601f191660200182016040528015612134576020820181803683370190505b5090505b84156121b75761214960018361514e565b9150612156600a86615480565b612161906030615494565b60f81b818381518110612176576121766154ac565b60200101907effffffffffffffffffffffffffffffffffffffffffffffffffffffffffffff1916908160001a9053506121b0600a866153dd565b9450612138565b949350505050565b60007f000000000000000000000000000000000000000000000000000000000000000073ffffffffffffffffffffffffffffffffffffffff1663f4daa2916040518163ffffffff1660e01b8152600401602060405180830381865afa15801561222c573d6000803e3d6000fd5b505050506040513d601f19601f8201168201806040525081019061225091906150aa565b61225a9083615494565b421192915050565b6000806000612272866000612584565b9050806122a8576308c379a06000526020805278185361666543616c6c3a204e6f7420656e6f756768206761736058526064601cfd5b600080855160208701888b5af1979650505050505050565b600054610100900460ff16612357576040517f08c379a000000000000000000000000000000000000000000000000000000000815260206004820152602b60248201527f496e697469616c697a61626c653a20636f6e7472616374206973206e6f74206960448201527f6e697469616c697a696e670000000000000000000000000000000000000000006064820152608401610598565b60408051606081018252633b9aca00808252600060208301524367ffffffffffffffff169190920181905278010000000000000000000000000000000000000000000000000217600155565b6040805160c081018252600080825260208201819052918101829052606081018290526080810182905260a08101919091527f000000000000000000000000000000000000000000000000000000000000000073ffffffffffffffffffffffffffffffffffffffff1663cc731b026040518163ffffffff1660e01b815260040160c060405180830381865afa158015612440573d6000803e3d6000fd5b505050506040513d601f19601f820116820180604052508101906124649190615500565b905090565b600061247e61247885856125a2565b836125b2565b90505b9392505050565b6000670de0b6b3a76400006124c96124a08583615194565b6124b290670de0b6b3a76400006151fc565b6124c485670de0b6b3a7640000615270565b6125c1565b6124d39086615270565b61247e9190615194565b6000818310156124ed5781612481565b5090919050565b6000805a90505b825a612507908361514e565b101561251d5761251682615448565b91506124fb565b505050565b6060818051906020012060405160200161253e91815260200190565b6040516020818303038152906040529050919050565b600061257b846125658786866125f2565b8051602091820120825192909101919091201490565b95945050505050565b600080603f83619c4001026040850201603f5a021015949350505050565b6000818312156124ed5781612481565b60008183126124ed5781612481565b6000612481670de0b6b3a7640000836125d986613070565b6125e39190615270565b6125ed9190615194565b6132b4565b6060600084511161265f576040517f08c379a000000000000000000000000000000000000000000000000000000000815260206004820152601560248201527f4d65726b6c65547269653a20656d707479206b657900000000000000000000006044820152606401610598565b600061266a846134f3565b90506000612677866135df565b905060008460405160200161268e91815260200190565b60405160208183030381529060405290506000805b8451811015612fe75760008582815181106126c0576126c06154ac565b60200260200101519050845183111561275b576040517f08c379a000000000000000000000000000000000000000000000000000000000815260206004820152602e60248201527f4d65726b6c65547269653a206b657920696e646578206578636565647320746f60448201527f74616c206b6579206c656e6774680000000000000000000000000000000000006064820152608401610598565b8260000361281457805180516020918201206040516127a99261278392910190815260200190565b604051602081830303815290604052858051602091820120825192909101919091201490565b61280f576040517f08c379a000000000000000000000000000000000000000000000000000000000815260206004820152601d60248201527f4d65726b6c65547269653a20696e76616c696420726f6f7420686173680000006044820152606401610598565b61296b565b8051516020116128ca578051805160209182012060405161283e9261278392910190815260200190565b61280f576040517f08c379a000000000000000000000000000000000000000000000000000000000815260206004820152602760248201527f4d65726b6c65547269653a20696e76616c6964206c6172676520696e7465726e60448201527f616c2068617368000000000000000000000000000000000000000000000000006064820152608401610598565b80518451602080870191909120825191909201201461296b576040517f08c379a000000000000000000000000000000000000000000000000000000000815260206004820152602660248201527f4d65726b6c65547269653a20696e76616c696420696e7465726e616c206e6f6460448201527f65206861736800000000000000000000000000000000000000000000000000006064820152608401610598565b61297760106001615494565b81602001515103612b535784518303612aeb576129b181602001516010815181106129a4576129a46154ac565b6020026020010151613642565b96506000875111612a44576040517f08c379a000000000000000000000000000000000000000000000000000000000815260206004820152603b60248201527f4d65726b6c65547269653a2076616c7565206c656e677468206d75737420626560448201527f2067726561746572207468616e207a65726f20286272616e63682900000000006064820152608401610598565b60018651612a52919061514e565b8214612ae0576040517f08c379a000000000000000000000000000000000000000000000000000000000815260206004820152603a60248201527f4d65726b6c65547269653a2076616c7565206e6f6465206d757374206265206c60448201527f617374206e6f646520696e2070726f6f6620286272616e6368290000000000006064820152608401610598565b505050505050612481565b6000858481518110612aff57612aff6154ac565b602001015160f81c60f81b60f81c9050600082602001518260ff1681518110612b2a57612b2a6154ac565b60200260200101519050612b3d816137a2565b9550612b4a600186615494565b94505050612fd4565b600281602001515103612f4c576000612b6b826137c7565b9050600081600081518110612b8257612b826154ac565b016020015160f81c90506000612b9960028361559f565b612ba49060026155c1565b90506000612bb5848360ff166137eb565b90506000612bc38a896137eb565b90506000612bd18383613821565b905080835114612c63576040517f08c379a000000000000000000000000000000000000000000000000000000000815260206004820152603a60248201527f4d65726b6c65547269653a20706174682072656d61696e646572206d7573742060448201527f736861726520616c6c206e6962626c65732077697468206b65790000000000006064820152608401610598565b60ff851660021480612c78575060ff85166003145b15612e675780825114612d0d576040517f08c379a000000000000000000000000000000000000000000000000000000000815260206004820152603d60248201527f4d65726b6c65547269653a206b65792072656d61696e646572206d757374206260448201527f65206964656e746963616c20746f20706174682072656d61696e6465720000006064820152608401610598565b612d2787602001516001815181106129a4576129a46154ac565b9c5060008d5111612dba576040517f08c379a000000000000000000000000000000000000000000000000000000000815260206004820152603960248201527f4d65726b6c65547269653a2076616c7565206c656e677468206d75737420626560448201527f2067726561746572207468616e207a65726f20286c65616629000000000000006064820152608401610598565b60018c51612dc8919061514e565b8814612e56576040517f08c379a000000000000000000000000000000000000000000000000000000000815260206004820152603860248201527f4d65726b6c65547269653a2076616c7565206e6f6465206d757374206265206c60448201527f617374206e6f646520696e2070726f6f6620286c6561662900000000000000006064820152608401610598565b505050505050505050505050612481565b60ff85161580612e7a575060ff85166001145b15612eb957612ea68760200151600181518110612e9957612e996154ac565b60200260200101516137a2565b9950612eb2818a615494565b9850612f41565b6040517f08c379a000000000000000000000000000000000000000000000000000000000815260206004820152603260248201527f4d65726b6c65547269653a2072656365697665642061206e6f6465207769746860448201527f20616e20756e6b6e6f776e2070726566697800000000000000000000000000006064820152608401610598565b505050505050612fd4565b6040517f08c379a000000000000000000000000000000000000000000000000000000000815260206004820152602860248201527f4d65726b6c65547269653a20726563656976656420616e20756e70617273656160448201527f626c65206e6f64650000000000000000000000000000000000000000000000006064820152608401610598565b5080612fdf81615448565b9150506126a3565b506040517f08c379a000000000000000000000000000000000000000000000000000000000815260206004820152602560248201527f4d65726b6c65547269653a2072616e206f7574206f662070726f6f6620656c6560448201527f6d656e74730000000000000000000000000000000000000000000000000000006064820152608401610598565b60008082136130db576040517f08c379a000000000000000000000000000000000000000000000000000000000815260206004820152600960248201527f554e444546494e454400000000000000000000000000000000000000000000006044820152606401610598565b600060606130e8846138d5565b03609f8181039490941b90931c6c465772b2bbbb5f824b15207a3081018102606090811d6d0388eaa27412d5aca026815d636e018202811d6d0df99ac502031bf953eff472fdcc018202811d6d13cdffb29d51d99322bdff5f2211018202811d6d0a0f742023def783a307a986912e018202811d6d01920d8043ca89b5239253284e42018202811d6c0b7a86d7375468fac667a0a527016c29508e458543d8aa4df2abee7883018302821d6d0139601a2efabe717e604cbb4894018302821d6d02247f7a7b6594320649aa03aba1018302821d7fffffffffffffffffffffffffffffffffffffff73c0c716a594e00d54e3c4cbc9018302821d7ffffffffffffffffffffffffffffffffffffffdc7b88c420e53a9890533129f6f01830290911d7fffffffffffffffffffffffffffffffffffffff465fda27eb4d63ded474e5f832019091027ffffffffffffffff5f6af8f7b3396644f18e157960000000000000000000000000105711340daa0d5f769dba1915cef59f0815a5506027d0267a36c0c95b3975ab3ee5b203a7614a3f75373f047d803ae7b6687f2b393909302929092017d57115e47018c7177eebf7cd370a3356a1b7863008a5ae8028c72b88642840160ae1d92915050565b60007ffffffffffffffffffffffffffffffffffffffffffffffffdb731c958f34d94c182136132e557506000919050565b680755bf798b4a1bf1e58212613357576040517f08c379a000000000000000000000000000000000000000000000000000000000815260206004820152600c60248201527f4558505f4f564552464c4f5700000000000000000000000000000000000000006044820152606401610598565b6503782dace9d9604e83901b059150600060606bb17217f7d1cf79abc9e3b39884821b056b80000000000000000000000001901d6bb17217f7d1cf79abc9e3b39881029093037fffffffffffffffffffffffffffffffffffffffdbf3ccf1604d263450f02a550481018102606090811d6d0277594991cfc85f6e2461837cd9018202811d7fffffffffffffffffffffffffffffffffffffe5adedaa1cb095af9e4da10e363c018202811d6db1bbb201f443cf962f1a1d3db4a5018202811d7ffffffffffffffffffffffffffffffffffffd38dc772608b0ae56cce01296c0eb018202811d6e05180bb14799ab47a8a8cb2a527d57016d02d16720577bd19bf614176fe9ea6c10fe68e7fd37d0007b713f765084018402831d9081019084017ffffffffffffffffffffffffffffffffffffffe2c69812cf03b0763fd454a8f7e010290911d6e0587f503bb6ea29d25fcb7401964500190910279d835ebba824c98fb31b83b2ca45c000000000000000000000000010574029d9dc38563c32e5c2f6dc192ee70ef65f9978af30260c3939093039290921c92915050565b80516060908067ffffffffffffffff811115613511576135116149f8565b60405190808252806020026020018201604052801561355657816020015b604080518082019091526060808252602082015281526020019060019003908161352f5790505b50915060005b818110156135d8576040518060400160405280858381518110613581576135816154ac565b602002602001015181526020016135b08684815181106135a3576135a36154ac565b60200260200101516139ab565b8152508382815181106135c5576135c56154ac565b602090810291909101015260010161355c565b5050919050565b606080604051905082518060011b603f8101601f1916830160405280835250602084016020830160005b83811015613637578060011b82018184015160001a8060041c8253600f811660018301535050600101613609565b509295945050505050565b60606000806000613652856139be565b91945092509050600081600181111561366d5761366d6155e4565b146136fa576040517f08c379a000000000000000000000000000000000000000000000000000000000815260206004820152603960248201527f524c505265616465723a206465636f646564206974656d207479706520666f7260448201527f206279746573206973206e6f7420612064617461206974656d000000000000006064820152608401610598565b6137048284615494565b855114613793576040517f08c379a000000000000000000000000000000000000000000000000000000000815260206004820152603460248201527f524c505265616465723a2062797465732076616c756520636f6e7461696e732060448201527f616e20696e76616c69642072656d61696e6465720000000000000000000000006064820152608401610598565b61257b8560200151848461442b565b606060208260000151106137be576137b982613642565b611082565b611082826144bf565b60606110826137e683602001516000815181106129a4576129a46154ac565b6135df565b60608251821061380a5750604080516020810190915260008152611082565b612481838384865161381c919061514e565b6144d5565b6000808251845110613834578251613837565b83515b90505b80821080156138be5750828281518110613856576138566154ac565b602001015160f81c60f81b7effffffffffffffffffffffffffffffffffffffffffffffffffffffffffffff1916848381518110613895576138956154ac565b01602001517fff0000000000000000000000000000000000000000000000000000000000000016145b156138ce5781600101915061383a565b5092915050565b6000808211613940576040517f08c379a000000000000000000000000000000000000000000000000000000000815260206004820152600960248201527f554e444546494e454400000000000000000000000000000000000000000000006044820152606401610598565b5060016fffffffffffffffffffffffffffffffff821160071b82811c67ffffffffffffffff1060061b1782811c63ffffffff1060051b1782811c61ffff1060041b1782811c60ff10600390811b90911783811c600f1060021b1783811c909110821b1791821c111790565b60606110826139b9836146ad565b614796565b600080600080846000015111613a7c576040517f08c379a000000000000000000000000000000000000000000000000000000000815260206004820152604a60248201527f524c505265616465723a206c656e677468206f6620616e20524c50206974656d60448201527f206d7573742062652067726561746572207468616e207a65726f20746f20626560648201527f206465636f6461626c6500000000000000000000000000000000000000000000608482015260a401610598565b6020840151805160001a607f8111613aa1576000600160009450945094505050614424565b60b78111613caf576000613ab660808361514e565b905080876000015111613b71576040517f08c379a000000000000000000000000000000000000000000000000000000000815260206004820152604e60248201527f524c505265616465723a206c656e677468206f6620636f6e74656e74206d757360448201527f742062652067726561746572207468616e20737472696e67206c656e6774682060648201527f2873686f727420737472696e6729000000000000000000000000000000000000608482015260a401610598565b6001838101517fff00000000000000000000000000000000000000000000000000000000000000169082141580613bea57507f80000000000000000000000000000000000000000000000000000000000000007fff00000000000000000000000000000000000000000000000000000000000000821610155b613c9c576040517f08c379a000000000000000000000000000000000000000000000000000000000815260206004820152604d60248201527f524c505265616465723a20696e76616c6964207072656669782c2073696e676c60448201527f652062797465203c203078383020617265206e6f74207072656669786564202860648201527f73686f727420737472696e672900000000000000000000000000000000000000608482015260a401610598565b5060019550935060009250614424915050565b60bf8111613ffd576000613cc460b78361514e565b905080876000015111613d7f576040517f08c379a000000000000000000000000000000000000000000000000000000000815260206004820152605160248201527f524c505265616465723a206c656e677468206f6620636f6e74656e74206d757360448201527f74206265203e207468616e206c656e677468206f6620737472696e67206c656e60648201527f67746820286c6f6e6720737472696e6729000000000000000000000000000000608482015260a401610598565b60018301517fff00000000000000000000000000000000000000000000000000000000000000166000819003613e5d576040517f08c379a000000000000000000000000000000000000000000000000000000000815260206004820152604a60248201527f524c505265616465723a206c656e677468206f6620636f6e74656e74206d757360448201527f74206e6f74206861766520616e79206c656164696e67207a65726f7320286c6f60648201527f6e6720737472696e672900000000000000000000000000000000000000000000608482015260a401610598565b600184015160088302610100031c60378111613f21576040517f08c379a000000000000000000000000000000000000000000000000000000000815260206004820152604860248201527f524c505265616465723a206c656e677468206f6620636f6e74656e74206d757360448201527f742062652067726561746572207468616e20353520627974657320286c6f6e6760648201527f20737472696e6729000000000000000000000000000000000000000000000000608482015260a401610598565b613f2b8184615494565b895111613fe0576040517f08c379a000000000000000000000000000000000000000000000000000000000815260206004820152604c60248201527f524c505265616465723a206c656e677468206f6620636f6e74656e74206d757360448201527f742062652067726561746572207468616e20746f74616c206c656e677468202860648201527f6c6f6e6720737472696e67290000000000000000000000000000000000000000608482015260a401610598565b613feb836001615494565b97509550600094506144249350505050565b60f781116140de57600061401260c08361514e565b9050808760000151116140cd576040517f08c379a000000000000000000000000000000000000000000000000000000000815260206004820152604a60248201527f524c505265616465723a206c656e677468206f6620636f6e74656e74206d757360448201527f742062652067726561746572207468616e206c697374206c656e67746820287360648201527f686f7274206c6973742900000000000000000000000000000000000000000000608482015260a401610598565b600195509350849250614424915050565b60006140eb60f78361514e565b9050808760000151116141a6576040517f08c379a000000000000000000000000000000000000000000000000000000000815260206004820152604d60248201527f524c505265616465723a206c656e677468206f6620636f6e74656e74206d757360448201527f74206265203e207468616e206c656e677468206f66206c697374206c656e677460648201527f6820286c6f6e67206c6973742900000000000000000000000000000000000000608482015260a401610598565b60018301517fff00000000000000000000000000000000000000000000000000000000000000166000819003614284576040517f08c379a000000000000000000000000000000000000000000000000000000000815260206004820152604860248201527f524c505265616465723a206c656e677468206f6620636f6e74656e74206d757360448201527f74206e6f74206861766520616e79206c656164696e67207a65726f7320286c6f60648201527f6e67206c69737429000000000000000000000000000000000000000000000000608482015260a401610598565b600184015160088302610100031c60378111614348576040517f08c379a000000000000000000000000000000000000000000000000000000000815260206004820152604660248201527f524c505265616465723a206c656e677468206f6620636f6e74656e74206d757360448201527f742062652067726561746572207468616e20353520627974657320286c6f6e6760648201527f206c697374290000000000000000000000000000000000000000000000000000608482015260a401610598565b6143528184615494565b895111614407576040517f08c379a000000000000000000000000000000000000000000000000000000000815260206004820152604a60248201527f524c505265616465723a206c656e677468206f6620636f6e74656e74206d757360448201527f742062652067726561746572207468616e20746f74616c206c656e677468202860648201527f6c6f6e67206c6973742900000000000000000000000000000000000000000000608482015260a401610598565b614412836001615494565b97509550600194506144249350505050565b9193909250565b60608167ffffffffffffffff811115614446576144466149f8565b6040519080825280601f01601f191660200182016040528015614470576020820181803683370190505b50905081156124815760006144858486615494565b90506020820160005b848110156144a657828101518282015260200161448e565b848111156144b5576000858301525b5050509392505050565b606061108282602001516000846000015161442b565b60608182601f011015614544576040517f08c379a000000000000000000000000000000000000000000000000000000000815260206004820152600e60248201527f736c6963655f6f766572666c6f770000000000000000000000000000000000006044820152606401610598565b8282840110156145b0576040517f08c379a000000000000000000000000000000000000000000000000000000000815260206004820152600e60248201527f736c6963655f6f766572666c6f770000000000000000000000000000000000006044820152606401610598565b8183018451101561461d576040517f08c379a000000000000000000000000000000000000000000000000000000000815260206004820152601160248201527f736c6963655f6f75744f66426f756e64730000000000000000000000000000006044820152606401610598565b60608215801561463c57604051915060008252602082016040526146a4565b6040519150601f8416801560200281840101858101878315602002848b0101015b8183101561467557805183526020928301920161465d565b5050858452601f017fffffffffffffffffffffffffffffffffffffffffffffffffffffffffffffffe016604052505b50949350505050565b60408051808201909152600080825260208201526000825111614778576040517f08c379a000000000000000000000000000000000000000000000000000000000815260206004820152604a60248201527f524c505265616465723a206c656e677468206f6620616e20524c50206974656d60448201527f206d7573742062652067726561746572207468616e207a65726f20746f20626560648201527f206465636f6461626c6500000000000000000000000000000000000000000000608482015260a401610598565b50604080518082019091528151815260209182019181019190915290565b606060008060006147a6856139be565b9194509250905060018160018111156147c1576147c16155e4565b1461484e576040517f08c379a000000000000000000000000000000000000000000000000000000000815260206004820152603860248201527f524c505265616465723a206465636f646564206974656d207479706520666f7260448201527f206c697374206973206e6f742061206c697374206974656d00000000000000006064820152608401610598565b845161485a8385615494565b146148e7576040517f08c379a000000000000000000000000000000000000000000000000000000000815260206004820152603260248201527f524c505265616465723a206c697374206974656d2068617320616e20696e766160448201527f6c696420646174612072656d61696e64657200000000000000000000000000006064820152608401610598565b604080516020808252610420820190925290816020015b60408051808201909152600080825260208201528152602001906001900390816148fe5790505093506000835b86518110156149ec576000806149716040518060400160405280858c60000151614955919061514e565b8152602001858c6020015161496a9190615494565b90526139be565b50915091506040518060400160405280838361498d9190615494565b8152602001848b602001516149a29190615494565b8152508885815181106149b7576149b76154ac565b60209081029190910101526149cd600185615494565b93506149d98183615494565b6149e39084615494565b9250505061492b565b50845250919392505050565b7f4e487b7100000000000000000000000000000000000000000000000000000000600052604160045260246000fd5b604051601f82017fffffffffffffffffffffffffffffffffffffffffffffffffffffffffffffffe016810167ffffffffffffffff81118282101715614a6e57614a6e6149f8565b604052919050565b803573ffffffffffffffffffffffffffffffffffffffff81168114614a9a57600080fd5b919050565b600082601f830112614ab057600080fd5b813567ffffffffffffffff811115614aca57614aca6149f8565b614afb60207fffffffffffffffffffffffffffffffffffffffffffffffffffffffffffffffe0601f84011601614a27565b818152846020838601011115614b1057600080fd5b816020850160208301376000918101602001919091529392505050565b600060c08284031215614b3f57600080fd5b60405160c0810167ffffffffffffffff8282108183111715614b6357614b636149f8565b8160405282935084358352614b7a60208601614a76565b6020840152614b8b60408601614a76565b6040840152606085013560608401526080850135608084015260a0850135915080821115614bb857600080fd5b50614bc585828601614a9f565b60a0830152505092915050565b600080600080600085870360e0811215614beb57600080fd5b863567ffffffffffffffff80821115614c0357600080fd5b614c0f8a838b01614b2d565b97506020890135965060807fffffffffffffffffffffffffffffffffffffffffffffffffffffffffffffffc084011215614c4857600080fd5b60408901955060c0890135925080831115614c6257600080fd5b828901925089601f840112614c7657600080fd5b8235915080821115614c8757600080fd5b508860208260051b8401011115614c9d57600080fd5b959894975092955050506020019190565b60005b83811015614cc9578181015183820152602001614cb1565b83811115614cd8576000848401525b50505050565b60008151808452614cf6816020860160208601614cae565b601f017fffffffffffffffffffffffffffffffffffffffffffffffffffffffffffffffe0169290920160200192915050565b6020815260006124816020830184614cde565b600060208284031215614d4d57600080fd5b5035919050565b600060208284031215614d6657600080fd5b813567ffffffffffffffff811115614d7d57600080fd5b6121b784828501614b2d565b803567ffffffffffffffff81168114614a9a57600080fd5b600060208284031215614db357600080fd5b61248182614d89565b80358015158114614a9a57600080fd5b600060208284031215614dde57600080fd5b61248182614dbc565b600080600080600060a08688031215614dff57600080fd5b614e0886614a76565b945060208601359350614e1d60408701614d89565b9250614e2b60608701614dbc565b9150608086013567ffffffffffffffff811115614e4757600080fd5b614e5388828901614a9f565b9150509295509295909350565b8581528460208201527fffffffffffffffff0000000000000000000000000000000000000000000000008460c01b16604082015282151560f81b604882015260008251614eb4816049850160208701614cae565b919091016049019695505050505050565b80516fffffffffffffffffffffffffffffffff81168114614a9a57600080fd5b600060608284031215614ef757600080fd5b6040516060810181811067ffffffffffffffff82111715614f1a57614f1a6149f8565b60405282518152614f2d60208401614ec5565b6020820152614f3e60408401614ec5565b60408201529392505050565b600060808284031215614f5c57600080fd5b6040516080810181811067ffffffffffffffff82111715614f7f57614f7f6149f8565b8060405250823581526020830135602082015260408301356040820152606083013560608201528091505092915050565b600067ffffffffffffffff80841115614fcb57614fcb6149f8565b8360051b6020614fdc818301614a27565b868152918501918181019036841115614ff457600080fd5b865b848110156150285780358681111561500e5760008081fd5b61501a36828b01614a9f565b845250918301918301614ff6565b50979650505050505050565b60008451615046818460208901614cae565b80830190507f2e000000000000000000000000000000000000000000000000000000000000008082528551615082816001850160208a01614cae565b6001920191820152835161509d816002840160208801614cae565b0160020195945050505050565b6000602082840312156150bc57600080fd5b5051919050565b7f4e487b7100000000000000000000000000000000000000000000000000000000600052601160045260246000fd5b600067ffffffffffffffff80831681851681830481118215151615615119576151196150c3565b02949350505050565b600067ffffffffffffffff808316818516808303821115615145576151456150c3565b01949350505050565b600082821015615160576151606150c3565b500390565b7f4e487b7100000000000000000000000000000000000000000000000000000000600052601260045260246000fd5b6000826151a3576151a3615165565b7fffffffffffffffffffffffffffffffffffffffffffffffffffffffffffffffff83147f8000000000000000000000000000000000000000000000000000000000000000831416156151f7576151f76150c3565b500590565b6000808312837f800000000000000000000000000000000000000000000000000000000000000001831281151615615236576152366150c3565b837f7fffffffffffffffffffffffffffffffffffffffffffffffffffffffffffffff01831381161561526a5761526a6150c3565b50500390565b60007f7fffffffffffffffffffffffffffffffffffffffffffffffffffffffffffffff6000841360008413858304851182821616156152b1576152b16150c3565b7f800000000000000000000000000000000000000000000000000000000000000060008712868205881281841616156152ec576152ec6150c3565b60008712925087820587128484161615615308576153086150c3565b8785058712818416161561531e5761531e6150c3565b505050929093029392505050565b6000808212827f7fffffffffffffffffffffffffffffffffffffffffffffffffffffffffffffff03841381151615615366576153666150c3565b827f800000000000000000000000000000000000000000000000000000000000000003841281161561539a5761539a6150c3565b50500190565b6000817fffffffffffffffffffffffffffffffffffffffffffffffffffffffffffffffff04831182151516156153d8576153d86150c3565b500290565b6000826153ec576153ec615165565b500490565b868152600073ffffffffffffffffffffffffffffffffffffffff808816602084015280871660408401525084606083015283608083015260c060a083015261543c60c0830184614cde565b98975050505050505050565b60007fffffffffffffffffffffffffffffffffffffffffffffffffffffffffffffffff8203615479576154796150c3565b5060010190565b60008261548f5761548f615165565b500690565b600082198211156154a7576154a76150c3565b500190565b7f4e487b7100000000000000000000000000000000000000000000000000000000600052603260045260246000fd5b805163ffffffff81168114614a9a57600080fd5b805160ff81168114614a9a57600080fd5b600060c0828403121561551257600080fd5b60405160c0810181811067ffffffffffffffff82111715615535576155356149f8565b604052615541836154db565b815261554f602084016154ef565b6020820152615560604084016154ef565b6040820152615571606084016154db565b6060820152615582608084016154db565b608082015261559360a08401614ec5565b60a08201529392505050565b600060ff8316806155b2576155b2615165565b8060ff84160691505092915050565b600060ff821660ff8416808210156155db576155db6150c3565b90039392505050565b7f4e487b7100000000000000000000000000000000000000000000000000000000600052602160045260246000fdfea164736f6c634300080f000a",
  "devdoc": {
    "version": 1,
    "kind": "dev",
    "methods": {
      "constructor": {
        "params": {
          "_config": "Address of the SystemConfig contract.",
          "_guardian": "Address that can pause withdrawals.",
          "_l2Oracle": "Address of the L2OutputOracle contract.",
          "_paused": "Sets the contract's pausability state."
        }
      },
      "depositTransaction(address,uint256,uint64,bool,bytes)": {
        "params": {
          "_data": "Data to trigger the recipient with.",
          "_gasLimit": "Amount of L2 gas to purchase by burning gas on L1.",
          "_isCreation": "Whether or not the transaction is a contract creation.",
          "_to": "Target address on L2.",
          "_value": "ETH value to send to the recipient."
        }
      },
      "finalizeWithdrawalTransaction((uint256,address,address,uint256,uint256,bytes))": {
        "params": {
          "_tx": "Withdrawal transaction to finalize."
        }
      },
      "isOutputFinalized(uint256)": {
        "params": {
          "_l2OutputIndex": "Index of the L2 output to check."
        },
        "returns": {
          "_0": "Whether or not the output is finalized."
        }
      },
      "minimumGasLimit(uint64)": {
        "params": {
          "_byteCount": "Number of bytes in the calldata."
        },
        "returns": {
          "_0": "The minimum gas limit for a deposit."
        }
      },
      "proveWithdrawalTransaction((uint256,address,address,uint256,uint256,bytes),uint256,(bytes32,bytes32,bytes32,bytes32),bytes[])": {
        "params": {
          "_l2OutputIndex": "L2 output index to prove against.",
          "_outputRootProof": "Inclusion proof of the L2ToL1MessagePasser contract's storage root.",
          "_tx": "Withdrawal transaction to finalize.",
          "_withdrawalProof": "Inclusion proof of the withdrawal in L2ToL1MessagePasser contract."
        }
      },
      "version()": {
        "returns": {
          "_0": "Semver contract version as a string."
        }
      }
    },
    "events": {
      "Paused(address)": {
        "params": {
          "account": "Address of the account triggering the pause."
        }
      },
      "TransactionDeposited(address,address,uint256,bytes)": {
        "params": {
          "from": "Address that triggered the deposit transaction.",
          "opaqueData": "ABI encoded deposit data to be parsed off-chain.",
          "to": "Address that the deposit transaction is directed to.",
          "version": "Version of this deposit transaction event."
        }
      },
      "Unpaused(address)": {
        "params": {
          "account": "Address of the account triggering the unpause."
        }
      },
      "WithdrawalFinalized(bytes32,bool)": {
        "params": {
          "success": "Whether the withdrawal transaction was successful.",
          "withdrawalHash": "Hash of the withdrawal transaction."
        }
      },
      "WithdrawalProven(bytes32,address,address)": {
        "params": {
          "from": "Address that triggered the withdrawal transaction.",
          "to": "Address that the withdrawal transaction is directed to.",
          "withdrawalHash": "Hash of the withdrawal transaction."
        }
      }
    }
  },
  "numDeployments": 1,
  "solcInputHash": "0x0000000000000000000000000000000000000000000000000000000000000000",
  "storageLayout": {
    "storage": [
      {
        "astId": 31595,
        "contract": "src/L1/OptimismPortal.sol:OptimismPortal",
        "label": "_initialized",
        "offset": 0,
        "slot": "0",
        "type": "t_uint8"
      },
      {
        "astId": 31598,
        "contract": "src/L1/OptimismPortal.sol:OptimismPortal",
        "label": "_initializing",
        "offset": 1,
        "slot": "0",
        "type": "t_bool"
      },
      {
        "astId": 53604,
        "contract": "src/L1/OptimismPortal.sol:OptimismPortal",
        "label": "params",
        "offset": 0,
        "slot": "1",
        "type": "t_struct(ResourceParams)53587_storage"
      },
      {
        "astId": 53609,
        "contract": "src/L1/OptimismPortal.sol:OptimismPortal",
        "label": "__gap",
        "offset": 0,
        "slot": "2",
        "type": "t_array(t_uint256)48_storage"
      },
      {
        "astId": 52948,
        "contract": "src/L1/OptimismPortal.sol:OptimismPortal",
        "label": "l2Sender",
        "offset": 0,
        "slot": "50",
        "type": "t_address"
      },
      {
        "astId": 52953,
        "contract": "src/L1/OptimismPortal.sol:OptimismPortal",
        "label": "finalizedWithdrawals",
        "offset": 0,
        "slot": "51",
        "type": "t_mapping(t_bytes32,t_bool)"
      },
      {
        "astId": 52959,
        "contract": "src/L1/OptimismPortal.sol:OptimismPortal",
        "label": "provenWithdrawals",
        "offset": 0,
        "slot": "52",
        "type": "t_mapping(t_bytes32,t_struct(ProvenWithdrawal)52926_storage)"
      },
      {
        "astId": 52962,
        "contract": "src/L1/OptimismPortal.sol:OptimismPortal",
        "label": "paused",
        "offset": 0,
        "slot": "53",
        "type": "t_bool"
      }
    ],
    "types": {
      "t_address": {
        "encoding": "inplace",
        "label": "address",
        "numberOfBytes": "20"
      },
      "t_array(t_uint256)48_storage": {
        "encoding": "inplace",
        "label": "uint256[48]",
        "numberOfBytes": "1536",
        "base": "t_uint256"
      },
      "t_bool": {
        "encoding": "inplace",
        "label": "bool",
        "numberOfBytes": "1"
      },
      "t_bytes32": {
        "encoding": "inplace",
        "label": "bytes32",
        "numberOfBytes": "32"
      },
      "t_mapping(t_bytes32,t_bool)": {
        "encoding": "mapping",
        "key": "t_bytes32",
        "label": "mapping(bytes32 => bool)",
        "numberOfBytes": "32",
        "value": "t_bool"
      },
      "t_mapping(t_bytes32,t_struct(ProvenWithdrawal)52926_storage)": {
        "encoding": "mapping",
        "key": "t_bytes32",
        "label": "mapping(bytes32 => struct OptimismPortal.ProvenWithdrawal)",
        "numberOfBytes": "32",
        "value": "t_struct(ProvenWithdrawal)52926_storage"
      },
      "t_struct(ProvenWithdrawal)52926_storage": {
        "encoding": "inplace",
        "label": "struct OptimismPortal.ProvenWithdrawal",
        "numberOfBytes": "64",
        "members": [
          {
            "astId": 52921,
            "contract": "src/L1/OptimismPortal.sol:OptimismPortal",
            "label": "outputRoot",
            "offset": 0,
            "slot": "0",
            "type": "t_bytes32"
          },
          {
            "astId": 52923,
            "contract": "src/L1/OptimismPortal.sol:OptimismPortal",
            "label": "timestamp",
            "offset": 0,
            "slot": "1",
            "type": "t_uint128"
          },
          {
            "astId": 52925,
            "contract": "src/L1/OptimismPortal.sol:OptimismPortal",
            "label": "l2OutputIndex",
            "offset": 16,
            "slot": "1",
            "type": "t_uint128"
          }
        ]
      },
      "t_struct(ResourceParams)53587_storage": {
        "encoding": "inplace",
        "label": "struct ResourceMetering.ResourceParams",
        "numberOfBytes": "32",
        "members": [
          {
            "astId": 53582,
            "contract": "src/L1/OptimismPortal.sol:OptimismPortal",
            "label": "prevBaseFee",
            "offset": 0,
            "slot": "0",
            "type": "t_uint128"
          },
          {
            "astId": 53584,
            "contract": "src/L1/OptimismPortal.sol:OptimismPortal",
            "label": "prevBoughtGas",
            "offset": 16,
            "slot": "0",
            "type": "t_uint64"
          },
          {
            "astId": 53586,
            "contract": "src/L1/OptimismPortal.sol:OptimismPortal",
            "label": "prevBlockNum",
            "offset": 24,
            "slot": "0",
            "type": "t_uint64"
          }
        ]
      },
      "t_uint128": {
        "encoding": "inplace",
        "label": "uint128",
        "numberOfBytes": "16"
      },
      "t_uint256": {
        "encoding": "inplace",
        "label": "uint256",
        "numberOfBytes": "32"
      },
      "t_uint64": {
        "encoding": "inplace",
        "label": "uint64",
        "numberOfBytes": "8"
      },
      "t_uint8": {
        "encoding": "inplace",
        "label": "uint8",
        "numberOfBytes": "1"
      }
    }
  },
  "transactionHash": "0xc055c8156ea6ba28d4a2163fa97d03ed0a0e967552376d3aabcbf417d4821b8d",
  "userdoc": {
    "version": 1,
    "kind": "user",
    "methods": {
      "GUARDIAN()": {
        "notice": "Address that has the ability to pause and unpause withdrawals."
      },
      "L2_ORACLE()": {
        "notice": "Address of the L2OutputOracle contract."
      },
      "SYSTEM_CONFIG()": {
        "notice": "Address of the SystemConfig contract."
      },
      "constructor": {
        "notice": "Constructs the OptimismPortal contract."
      },
      "depositTransaction(address,uint256,uint64,bool,bytes)": {
        "notice": "Accepts deposits of ETH and data, and emits a TransactionDeposited event for use in         deriving deposit transactions. Note that if a deposit is made by a contract, its         address will be aliased when retrieved using `tx.origin` or `msg.sender`. Consider         using the CrossDomainMessenger contracts for a simpler developer experience."
      },
      "donateETH()": {
        "notice": "Accepts ETH value without triggering a deposit to L2.         This function mainly exists for the sake of the migration between the legacy         Optimism system and Bedrock."
      },
      "finalizeWithdrawalTransaction((uint256,address,address,uint256,uint256,bytes))": {
        "notice": "Finalizes a withdrawal transaction."
      },
      "finalizedWithdrawals(bytes32)": {
        "notice": "A list of withdrawal hashes which have been successfully finalized."
      },
      "initialize(bool)": {
        "notice": "Initializer."
      },
      "isOutputFinalized(uint256)": {
        "notice": "Determine if a given output is finalized.         Reverts if the call to L2_ORACLE.getL2Output reverts.         Returns a boolean otherwise."
      },
      "l2Sender()": {
        "notice": "Address of the L2 account which initiated a withdrawal in this transaction.         If the of this variable is the default L2 sender address, then we are NOT inside of         a call to finalizeWithdrawalTransaction."
      },
      "minimumGasLimit(uint64)": {
        "notice": "Computes the minimum gas limit for a deposit.         The minimum gas limit linearly increases based on the size of the calldata.         This is to prevent users from creating L2 resource usage without paying for it.         This function can be used when interacting with the portal to ensure forwards         compatibility."
      },
      "params()": {
        "notice": "EIP-1559 style gas parameters."
      },
      "pause()": {
        "notice": "Pauses withdrawals."
      },
      "paused()": {
        "notice": "Determines if cross domain messaging is paused.         When set to true, withdrawals are paused.         This may be removed in the future."
      },
      "proveWithdrawalTransaction((uint256,address,address,uint256,uint256,bytes),uint256,(bytes32,bytes32,bytes32,bytes32),bytes[])": {
        "notice": "Proves a withdrawal transaction."
      },
      "provenWithdrawals(bytes32)": {
        "notice": "A mapping of withdrawal hashes to `ProvenWithdrawal` data."
      },
      "unpause()": {
        "notice": "Unpauses withdrawals."
      },
      "version()": {
        "notice": "Returns the full semver contract version."
      }
    },
    "events": {
      "Paused(address)": {
        "notice": "Emitted when the pause is triggered."
      },
      "TransactionDeposited(address,address,uint256,bytes)": {
        "notice": "Emitted when a transaction is deposited from L1 to L2.         The parameters of this event are read by the rollup node and used to derive deposit         transactions on L2."
      },
      "Unpaused(address)": {
        "notice": "Emitted when the pause is lifted."
      },
      "WithdrawalFinalized(bytes32,bool)": {
        "notice": "Emitted when a withdrawal transaction is finalized."
      },
      "WithdrawalProven(bytes32,address,address)": {
        "notice": "Emitted when a withdrawal transaction is proven."
      }
    },
    "notice": "The OptimismPortal is a low-level contract responsible for passing messages between L1         and L2. Messages sent directly to the OptimismPortal have no form of replayability.         Users are encouraged to use the L1CrossDomainMessenger for a higher-level interface."
  }
}