{
  "address": "0x3B2F0A774c34dB1Fa4745fDdC57b3e26A7AE8f10",
  "abi": [
    {
      "inputs": [
        {
          "internalType": "address",
          "name": "greeterL1Addr",
          "type": "address"
        },
        {
          "internalType": "string",
          "name": "_greeting",
          "type": "string"
        }
      ],
      "name": "setGreeting",
      "outputs": [],
      "stateMutability": "nonpayable",
      "type": "function"
    }
  ],
  "transactionHash": "0xc68eef5dbc7218e3c04442946fff96f0619ad8e8ddbff7d95bf4a8248ba0ac50",
  "args": [],
  "numDeployments": 1,
  "solcInputHash": "d9fed4e57d02565a47c52fb945fa8c0c",
  "bytecode": "0x60806040527342000000000000000000000000000000000000076000806101000a81548173ffffffffffffffffffffffffffffffffffffffff021916908373ffffffffffffffffffffffffffffffffffffffff16021790555034801561006457600080fd5b5061048e806100746000396000f3fe608060405234801561001057600080fd5b506004361061002b5760003560e01c8063dbd1a97d14610030575b600080fd5b61004a60048036038101906100459190610247565b61004c565b005b606082823360405160240161006393929190610314565b6040516020818303038152906040527f8d86c2ad000000000000000000000000000000000000000000000000000000007bffffffffffffffffffffffffffffffffffffffffffffffffffffffff19166020820180517bffffffffffffffffffffffffffffffffffffffffffffffffffffffff8381831617835250505050905060008054906101000a900473ffffffffffffffffffffffffffffffffffffffff1673ffffffffffffffffffffffffffffffffffffffff16633dbb202b8583620f42406040518463ffffffff1660e01b81526004016101429392919061041a565b600060405180830381600087803b15801561015c57600080fd5b505af1158015610170573d6000803e3d6000fd5b5050505050505050565b600080fd5b600080fd5b600073ffffffffffffffffffffffffffffffffffffffff82169050919050565b60006101af82610184565b9050919050565b6101bf816101a4565b81146101ca57600080fd5b50565b6000813590506101dc816101b6565b92915050565b600080fd5b600080fd5b600080fd5b60008083601f840112610207576102066101e2565b5b8235905067ffffffffffffffff811115610224576102236101e7565b5b6020830191508360018202830111156102405761023f6101ec565b5b9250929050565b6000806000604084860312156102605761025f61017a565b5b600061026e868287016101cd565b935050602084013567ffffffffffffffff81111561028f5761028e61017f565b5b61029b868287016101f1565b92509250509250925092565b600082825260208201905092915050565b82818337600083830152505050565b6000601f19601f8301169050919050565b60006102e483856102a7565b93506102f18385846102b8565b6102fa836102c7565b840190509392505050565b61030e816101a4565b82525050565b6000604082019050818103600083015261032f8185876102d8565b905061033e6020830184610305565b949350505050565b600081519050919050565b600082825260208201905092915050565b60005b83811015610380578082015181840152602081019050610365565b60008484015250505050565b600061039782610346565b6103a18185610351565b93506103b1818560208601610362565b6103ba816102c7565b840191505092915050565b6000819050919050565b600063ffffffff82169050919050565b6000819050919050565b60006104046103ff6103fa846103c5565b6103df565b6103cf565b9050919050565b610414816103e9565b82525050565b600060608201905061042f6000830186610305565b8181036020830152610441818561038c565b9050610450604083018461040b565b94935050505056fea264697066735822122075805df222472bea7515a42078262dc86623a961c710eb48728dd7cfd2b354a464736f6c63430008130033",
  "devdoc": {
    "kind": "dev",
    "methods": {},
    "version": 1
  },
  "userdoc": {
    "kind": "user",
    "methods": {},
    "version": 1
  },
  "storageLayout": {
    "storage": [
      {
        "astId": 45,
        "contract": "contracts/FromL2_ControlL1Greeter.sol:FromL2_ControlL1Greeter",
        "label": "crossDomainMessengerAddr",
        "offset": 0,
        "slot": "0",
        "type": "t_address"
      }
    ],
    "types": {
      "t_address": {
        "encoding": "inplace",
        "label": "address",
        "numberOfBytes": "20"
      }
    }
  }
}