{
  "address": "0x14eEF697c9b0cE96ed0C06d20EcB338cd7BEA11a",
  "abi": [
    {
      "inputs": [
        {
          "internalType": "address",
          "name": "crossChainManager",
          "type": "address"
        }
      ],
      "stateMutability": "nonpayable",
      "type": "constructor"
    },
    {
      "anonymous": false,
      "inputs": [
        {
          "indexed": false,
          "internalType": "address",
          "name": "sender",
          "type": "address"
        },
        {
          "indexed": false,
          "internalType": "address",
          "name": "origin",
          "type": "address"
        },
        {
          "indexed": false,
          "internalType": "address",
          "name": "xorigin",
          "type": "address"
        },
        {
          "indexed": false,
          "internalType": "address",
          "name": "user",
          "type": "address"
        },
        {
          "indexed": false,
          "internalType": "string",
          "name": "greeting",
          "type": "string"
        }
      ],
      "name": "SetGreeting",
      "type": "event"
    },
    {
      "inputs": [],
      "name": "greet",
      "outputs": [
        {
          "internalType": "string",
          "name": "",
          "type": "string"
        }
      ],
      "stateMutability": "view",
      "type": "function"
    },
    {
      "inputs": [],
      "name": "greeting",
      "outputs": [
        {
          "internalType": "string",
          "name": "",
          "type": "string"
        }
      ],
      "stateMutability": "view",
      "type": "function"
    },
    {
      "inputs": [],
      "name": "l1cdm",
      "outputs": [
        {
          "internalType": "address",
          "name": "",
          "type": "address"
        }
      ],
      "stateMutability": "view",
      "type": "function"
    },
    {
      "inputs": [
        {
          "internalType": "string",
          "name": "_greeting",
          "type": "string"
        },
        {
          "internalType": "address",
          "name": "_user",
          "type": "address"
        }
      ],
      "name": "setGreeting",
      "outputs": [],
      "stateMutability": "nonpayable",
      "type": "function"
    }
  ],
  "transactionHash": "0x4aca21563bb74420a00b71724767799e3479db08ded720e2211f0846f330d74a",
  "args": [
    "0x407D880217e8A18e854C093C80B99f45a6fF5c38"
  ],
  "numDeployments": 2,
  "solcInputHash": "3f5eabed6c3d4e97f5ce900764ee834a",
  "bytecode": "0x60806040523480156200001157600080fd5b5060405162000f8e38038062000f8e833981810160405281019062000037919062000130565b80600160006101000a81548173ffffffffffffffffffffffffffffffffffffffff021916908373ffffffffffffffffffffffffffffffffffffffff1602179055506040518060400160405280600e81526020017f6e6f742063616c6c65642079657400000000000000000000000000000000000081525060009081620000be9190620003dc565b5050620004c3565b600080fd5b600073ffffffffffffffffffffffffffffffffffffffff82169050919050565b6000620000f882620000cb565b9050919050565b6200010a81620000eb565b81146200011657600080fd5b50565b6000815190506200012a81620000ff565b92915050565b600060208284031215620001495762000148620000c6565b5b6000620001598482850162000119565b91505092915050565b600081519050919050565b7f4e487b7100000000000000000000000000000000000000000000000000000000600052604160045260246000fd5b7f4e487b7100000000000000000000000000000000000000000000000000000000600052602260045260246000fd5b60006002820490506001821680620001e457607f821691505b602082108103620001fa57620001f96200019c565b5b50919050565b60008190508160005260206000209050919050565b60006020601f8301049050919050565b600082821b905092915050565b600060088302620002647fffffffffffffffffffffffffffffffffffffffffffffffffffffffffffffffff8262000225565b62000270868362000225565b95508019841693508086168417925050509392505050565b6000819050919050565b6000819050919050565b6000620002bd620002b7620002b18462000288565b62000292565b62000288565b9050919050565b6000819050919050565b620002d9836200029c565b620002f1620002e882620002c4565b84845462000232565b825550505050565b600090565b62000308620002f9565b62000315818484620002ce565b505050565b5b818110156200033d5762000331600082620002fe565b6001810190506200031b565b5050565b601f8211156200038c57620003568162000200565b620003618462000215565b8101602085101562000371578190505b62000389620003808562000215565b8301826200031a565b50505b505050565b600082821c905092915050565b6000620003b16000198460080262000391565b1980831691505092915050565b6000620003cc83836200039e565b9150826002028217905092915050565b620003e78262000162565b67ffffffffffffffff8111156200040357620004026200016d565b5b6200040f8254620001cb565b6200041c82828562000341565b600060209050601f8311600181146200045457600084156200043f578287015190505b6200044b8582620003be565b865550620004bb565b601f198416620004648662000200565b60005b828110156200048e5784890151825560018201915060208501945060208101905062000467565b86831015620004ae5784890151620004aa601f8916826200039e565b8355505b6001600288020188555050505b505050505050565b610abb80620004d36000396000f3fe608060405234801561001057600080fd5b506004361061004c5760003560e01c80636fcf695c146100515780638d86c2ad1461006f578063cfae32171461008b578063ef690cc0146100a9575b600080fd5b6100596100c7565b60405161006691906103f7565b60405180910390f35b61008960048036038101906100849190610598565b6100ed565b005b610093610147565b6040516100a09190610673565b60405180910390f35b6100b16101d9565b6040516100be9190610673565b60405180910390f35b600160009054906101000a900473ffffffffffffffffffffffffffffffffffffffff1681565b81600090816100fc91906108ab565b507ffd1fe8fb6b9b0c76d4539b55dea0c817720153be1279cefedacf48b0991449883332610128610267565b848660405161013b95949392919061097d565b60405180910390a15050565b606060008054610156906106c4565b80601f0160208091040260200160405190810160405280929190818152602001828054610182906106c4565b80156101cf5780601f106101a4576101008083540402835291602001916101cf565b820191906000526020600020905b8154815290600101906020018083116101b257829003601f168201915b5050505050905090565b600080546101e6906106c4565b80601f0160208091040260200160405190810160405280929190818152602001828054610212906106c4565b801561025f5780601f106102345761010080835404028352916020019161025f565b820191906000526020600020905b81548152906001019060200180831161024257829003601f168201915b505050505081565b6000806000905062aa36a746036102a257600160009054906101000a900473ffffffffffffffffffffffffffffffffffffffff169050610303565b61a45546036102c7577342000000000000000000000000000000000000079050610302565b6040517f08c379a00000000000000000000000000000000000000000000000000000000081526004016102f990610a23565b60405180910390fd5b5b8073ffffffffffffffffffffffffffffffffffffffff163373ffffffffffffffffffffffffffffffffffffffff16146103405760009150506103b3565b8073ffffffffffffffffffffffffffffffffffffffff16636e296e456040518163ffffffff1660e01b8152600401602060405180830381865afa15801561038b573d6000803e3d6000fd5b505050506040513d601f19601f820116820180604052508101906103af9190610a58565b9150505b90565b600073ffffffffffffffffffffffffffffffffffffffff82169050919050565b60006103e1826103b6565b9050919050565b6103f1816103d6565b82525050565b600060208201905061040c60008301846103e8565b92915050565b6000604051905090565b600080fd5b600080fd5b600080fd5b600080fd5b6000601f19601f8301169050919050565b7f4e487b7100000000000000000000000000000000000000000000000000000000600052604160045260246000fd5b61047982610430565b810181811067ffffffffffffffff8211171561049857610497610441565b5b80604052505050565b60006104ab610412565b90506104b78282610470565b919050565b600067ffffffffffffffff8211156104d7576104d6610441565b5b6104e082610430565b9050602081019050919050565b82818337600083830152505050565b600061050f61050a846104bc565b6104a1565b90508281526020810184848401111561052b5761052a61042b565b5b6105368482856104ed565b509392505050565b600082601f83011261055357610552610426565b5b81356105638482602086016104fc565b91505092915050565b610575816103d6565b811461058057600080fd5b50565b6000813590506105928161056c565b92915050565b600080604083850312156105af576105ae61041c565b5b600083013567ffffffffffffffff8111156105cd576105cc610421565b5b6105d98582860161053e565b92505060206105ea85828601610583565b9150509250929050565b600081519050919050565b600082825260208201905092915050565b60005b8381101561062e578082015181840152602081019050610613565b60008484015250505050565b6000610645826105f4565b61064f81856105ff565b935061065f818560208601610610565b61066881610430565b840191505092915050565b6000602082019050818103600083015261068d818461063a565b905092915050565b7f4e487b7100000000000000000000000000000000000000000000000000000000600052602260045260246000fd5b600060028204905060018216806106dc57607f821691505b6020821081036106ef576106ee610695565b5b50919050565b60008190508160005260206000209050919050565b60006020601f8301049050919050565b600082821b905092915050565b6000600883026107577fffffffffffffffffffffffffffffffffffffffffffffffffffffffffffffffff8261071a565b610761868361071a565b95508019841693508086168417925050509392505050565b6000819050919050565b6000819050919050565b60006107a86107a361079e84610779565b610783565b610779565b9050919050565b6000819050919050565b6107c28361078d565b6107d66107ce826107af565b848454610727565b825550505050565b600090565b6107eb6107de565b6107f68184846107b9565b505050565b5b8181101561081a5761080f6000826107e3565b6001810190506107fc565b5050565b601f82111561085f57610830816106f5565b6108398461070a565b81016020851015610848578190505b61085c6108548561070a565b8301826107fb565b50505b505050565b600082821c905092915050565b600061088260001984600802610864565b1980831691505092915050565b600061089b8383610871565b9150826002028217905092915050565b6108b4826105f4565b67ffffffffffffffff8111156108cd576108cc610441565b5b6108d782546106c4565b6108e282828561081e565b600060209050601f8311600181146109155760008415610903578287015190505b61090d858261088f565b865550610975565b601f198416610923866106f5565b60005b8281101561094b57848901518255600182019150602085019450602081019050610926565b868310156109685784890151610964601f891682610871565b8355505b6001600288020188555050505b505050505050565b600060a08201905061099260008301886103e8565b61099f60208301876103e8565b6109ac60408301866103e8565b6109b960608301856103e8565b81810360808301526109cb818461063a565b90509695505050505050565b7f756e737570706f7274656420636861696e206964000000000000000000000000600082015250565b6000610a0d6014836105ff565b9150610a18826109d7565b602082019050919050565b60006020820190508181036000830152610a3c81610a00565b9050919050565b600081519050610a528161056c565b92915050565b600060208284031215610a6e57610a6d61041c565b5b6000610a7c84828501610a43565b9150509291505056fea264697066735822122084078d6106c9f41b45ce8aee5821799d4075728a72a929277c88d37fe3bcc5b864736f6c63430008130033",
  "devdoc": {
    "kind": "dev",
    "methods": {},
    "version": 1
  },
  "userdoc": {
    "kind": "user",
    "methods": {},
    "version": 1
  },
  "storageLayout": {
    "storage": [
      {
        "astId": 44,
        "contract": "contracts/Greeter.sol:Greeter",
        "label": "greeting",
        "offset": 0,
        "slot": "0",
        "type": "t_string_storage"
      },
      {
        "astId": 46,
        "contract": "contracts/Greeter.sol:Greeter",
        "label": "l1cdm",
        "offset": 0,
        "slot": "1",
        "type": "t_address"
      }
    ],
    "types": {
      "t_address": {
        "encoding": "inplace",
        "label": "address",
        "numberOfBytes": "20"
      },
      "t_string_storage": {
        "encoding": "bytes",
        "label": "string",
        "numberOfBytes": "32"
      }
    }
  }
}